{"contracts/lottery.sol":{"Lottery":{"abi":[{"inputs":[{"internalType":"uint256","name":"entranceFees","type":"uint256"},{"internalType":"address","name":"vrfCoordinator","type":"address"},{"internalType":"bytes32","name":"gasLane","type":"bytes32"},{"internalType":"uint64","name":"subscriptionId","type":"uint64"},{"internalType":"uint32","name":"callbackGasLimit","type":"uint32"}],"stateMutability":"nonpayable","type":"constructor"},{"inputs":[{"internalType":"address","name":"have","type":"address"},{"internalType":"address","name":"want","type":"address"}],"name":"OnlyCoordinatorCanFulfill","type":"error"},{"inputs":[],"name":"lottery__NotEnoughETHEntered","type":"error"},{"inputs":[],"name":"lottery__TransactionFailed","type":"error"},{"anonymous":false,"inputs":[{"indexed":true,"internalType":"address","name":"player","type":"address"}],"name":"Lottery_Enter","type":"event"},{"anonymous":false,"inputs":[{"indexed":false,"internalType":"uint256","name":"requestId","type":"uint256"}],"name":"RequestedLotteryWinner","type":"event"},{"inputs":[],"name":"enterLottery","outputs":[],"stateMutability":"payable","type":"function"},{"inputs":[],"name":"getEntryFees","outputs":[{"internalType":"uint256","name":"","type":"uint256"}],"stateMutability":"view","type":"function"},{"inputs":[{"internalType":"uint256","name":"index","type":"uint256"}],"name":"getPlayerAt","outputs":[{"internalType":"address","name":"","type":"address"}],"stateMutability":"view","type":"function"},{"inputs":[],"name":"getRecentWinner","outputs":[{"internalType":"address","name":"","type":"address"}],"stateMutability":"view","type":"function"},{"inputs":[{"internalType":"uint256","name":"requestId","type":"uint256"},{"internalType":"uint256[]","name":"randomWords","type":"uint256[]"}],"name":"rawFulfillRandomWords","outputs":[],"stateMutability":"nonpayable","type":"function"},{"inputs":[],"name":"requestRandomWinner","outputs":[],"stateMutability":"nonpayable","type":"function"}],"evm":{"bytecode":{"linkReferences":{},"object":"6101406040523480156200001257600080fd5b5060405162000e6038038062000e60833981810160405281019062000038919062000255565b838073ffffffffffffffffffffffffffffffffffffffff1660808173ffffffffffffffffffffffffffffffffffffffff1681525050508460a081815250508260c081815250508167ffffffffffffffff1660e08167ffffffffffffffff16815250508063ffffffff166101008163ffffffff16815250508373ffffffffffffffffffffffffffffffffffffffff166101208173ffffffffffffffffffffffffffffffffffffffff16815250505050505050620002dd565b600080fd5b6000819050919050565b6200010981620000f4565b81146200011557600080fd5b50565b6000815190506200012981620000fe565b92915050565b600073ffffffffffffffffffffffffffffffffffffffff82169050919050565b60006200015c826200012f565b9050919050565b6200016e816200014f565b81146200017a57600080fd5b50565b6000815190506200018e8162000163565b92915050565b6000819050919050565b620001a98162000194565b8114620001b557600080fd5b50565b600081519050620001c9816200019e565b92915050565b600067ffffffffffffffff82169050919050565b620001ee81620001cf565b8114620001fa57600080fd5b50565b6000815190506200020e81620001e3565b92915050565b600063ffffffff82169050919050565b6200022f8162000214565b81146200023b57600080fd5b50565b6000815190506200024f8162000224565b92915050565b600080600080600060a08688031215620002745762000273620000ef565b5b6000620002848882890162000118565b955050602062000297888289016200017d565b9450506040620002aa88828901620001b8565b9350506060620002bd88828901620001fd565b9250506080620002d0888289016200023e565b9150509295509295909350565b60805160a05160c05160e0516101005161012051610b256200033b6000396000610225015260006102a5015260006102820152600061026101526000818161036701526104b2015260008181610139015261018d0152610b256000f3fe6080604052600436106100555760003560e01c80631fe543e31461005a578063473f1ddc14610083578063522a1f0b146100ae578063c1af5785146100c5578063ceb73f45146100cf578063e262e4021461010c575b600080fd5b34801561006657600080fd5b50610081600480360381019061007c91906107d5565b610137565b005b34801561008f57600080fd5b506100986101f7565b6040516100a59190610872565b60405180910390f35b3480156100ba57600080fd5b506100c3610221565b005b6100cd610365565b005b3480156100db57600080fd5b506100f660048036038101906100f1919061088d565b610467565b6040516101039190610872565b60405180910390f35b34801561011857600080fd5b506101216104ae565b60405161012e91906108c9565b60405180910390f35b7f000000000000000000000000000000000000000000000000000000000000000073ffffffffffffffffffffffffffffffffffffffff163373ffffffffffffffffffffffffffffffffffffffff16146101e957337f00000000000000000000000000000000000000000000000000000000000000006040517f1cf993f40000000000000000000000000000000000000000000000000000000081526004016101e09291906108e4565b60405180910390fd5b6101f382826104d6565b5050565b6000600160009054906101000a900473ffffffffffffffffffffffffffffffffffffffff16905090565b60007f000000000000000000000000000000000000000000000000000000000000000073ffffffffffffffffffffffffffffffffffffffff16635d3b1d307f00000000000000000000000000000000000000000000000000000000000000007f000000000000000000000000000000000000000000000000000000000000000060037f000000000000000000000000000000000000000000000000000000000000000060016040518663ffffffff1660e01b81526004016102e6959493929190610985565b6020604051808303816000875af1158015610305573d6000803e3d6000fd5b505050506040513d601f19601f8201168201806040525081019061032991906109ed565b90507febf56642252004c18a776f30d528e7a0ce8c5db14b6596fb6550f630c8a24c6c8160405161035a91906108c9565b60405180910390a150565b7f00000000000000000000000000000000000000000000000000000000000000003410156103bf576040517fc7c441bf00000000000000000000000000000000000000000000000000000000815260040160405180910390fd5b6000339080600181540180825580915050600190039060005260206000200160009091909190916101000a81548173ffffffffffffffffffffffffffffffffffffffff021916908373ffffffffffffffffffffffffffffffffffffffff1602179055503373ffffffffffffffffffffffffffffffffffffffff167ff1f4bcd3f74994e09674cbaffe79e4dcf31b8892b2f750b1926a36dc6a5cd01c60405160405180910390a2565b600080828154811061047c5761047b610a1a565b5b9060005260206000200160009054906101000a900473ffffffffffffffffffffffffffffffffffffffff169050919050565b60007f0000000000000000000000000000000000000000000000000000000000000000905090565b60008080549050826000815181106104f1576104f0610a1a565b5b60200260200101516105039190610a78565b9050600080828154811061051a57610519610a1a565b5b9060005260206000200160009054906101000a900473ffffffffffffffffffffffffffffffffffffffff16905080600160006101000a81548173ffffffffffffffffffffffffffffffffffffffff021916908373ffffffffffffffffffffffffffffffffffffffff16021790555060008173ffffffffffffffffffffffffffffffffffffffff16476040516105ae90610ada565b60006040518083038185875af1925050503d80600081146105eb576040519150601f19603f3d011682016040523d82523d6000602084013e6105f0565b606091505b505090508061062b576040517fc7c24b4e00000000000000000000000000000000000000000000000000000000815260040160405180910390fd5b5050505050565b6000604051905090565b600080fd5b600080fd5b6000819050919050565b61065981610646565b811461066457600080fd5b50565b60008135905061067681610650565b92915050565b600080fd5b6000601f19601f8301169050919050565b7f4e487b7100000000000000000000000000000000000000000000000000000000600052604160045260246000fd5b6106ca82610681565b810181811067ffffffffffffffff821117156106e9576106e8610692565b5b80604052505050565b60006106fc610632565b905061070882826106c1565b919050565b600067ffffffffffffffff82111561072857610727610692565b5b602082029050602081019050919050565b600080fd5b600061075161074c8461070d565b6106f2565b9050808382526020820190506020840283018581111561077457610773610739565b5b835b8181101561079d57806107898882610667565b845260208401935050602081019050610776565b5050509392505050565b600082601f8301126107bc576107bb61067c565b5b81356107cc84826020860161073e565b91505092915050565b600080604083850312156107ec576107eb61063c565b5b60006107fa85828601610667565b925050602083013567ffffffffffffffff81111561081b5761081a610641565b5b610827858286016107a7565b9150509250929050565b600073ffffffffffffffffffffffffffffffffffffffff82169050919050565b600061085c82610831565b9050919050565b61086c81610851565b82525050565b60006020820190506108876000830184610863565b92915050565b6000602082840312156108a3576108a261063c565b5b60006108b184828501610667565b91505092915050565b6108c381610646565b82525050565b60006020820190506108de60008301846108ba565b92915050565b60006040820190506108f96000830185610863565b6109066020830184610863565b9392505050565b6000819050919050565b6109208161090d565b82525050565b600067ffffffffffffffff82169050919050565b61094381610926565b82525050565b600061ffff82169050919050565b61096081610949565b82525050565b600063ffffffff82169050919050565b61097f81610966565b82525050565b600060a08201905061099a6000830188610917565b6109a7602083018761093a565b6109b46040830186610957565b6109c16060830185610976565b6109ce6080830184610976565b9695505050505050565b6000815190506109e781610650565b92915050565b600060208284031215610a0357610a0261063c565b5b6000610a11848285016109d8565b91505092915050565b7f4e487b7100000000000000000000000000000000000000000000000000000000600052603260045260246000fd5b7f4e487b7100000000000000000000000000000000000000000000000000000000600052601260045260246000fd5b6000610a8382610646565b9150610a8e83610646565b925082610a9e57610a9d610a49565b5b828206905092915050565b600081905092915050565b50565b6000610ac4600083610aa9565b9150610acf82610ab4565b600082019050919050565b6000610ae582610ab7565b915081905091905056fea26469706673582212203f6354c32bce184068d9a8c7a9198374108fe9d2b3010c0f136723d6ac98d7e664736f6c63430008110033","opcodes":"PUSH2 0x140 PUSH1 0x40 MSTORE CALLVALUE DUP1 ISZERO PUSH3 0x12 JUMPI PUSH1 0x0 DUP1 REVERT JUMPDEST POP PUSH1 0x40 MLOAD PUSH3 0xE60 CODESIZE SUB DUP1 PUSH3 0xE60 DUP4 CODECOPY DUP2 DUP2 ADD PUSH1 0x40 MSTORE DUP2 ADD SWAP1 PUSH3 0x38 SWAP2 SWAP1 PUSH3 0x255 JUMP JUMPDEST DUP4 DUP1 PUSH20 0xFFFFFFFFFFFFFFFFFFFFFFFFFFFFFFFFFFFFFFFF AND PUSH1 0x80 DUP2 PUSH20 0xFFFFFFFFFFFFFFFFFFFFFFFFFFFFFFFFFFFFFFFF AND DUP2 MSTORE POP POP POP DUP5 PUSH1 0xA0 DUP2 DUP2 MSTORE POP POP DUP3 PUSH1 0xC0 DUP2 DUP2 MSTORE POP POP DUP2 PUSH8 0xFFFFFFFFFFFFFFFF AND PUSH1 0xE0 DUP2 PUSH8 0xFFFFFFFFFFFFFFFF AND DUP2 MSTORE POP POP DUP1 PUSH4 0xFFFFFFFF AND PUSH2 0x100 DUP2 PUSH4 0xFFFFFFFF AND DUP2 MSTORE POP POP DUP4 PUSH20 0xFFFFFFFFFFFFFFFFFFFFFFFFFFFFFFFFFFFFFFFF AND PUSH2 0x120 DUP2 PUSH20 0xFFFFFFFFFFFFFFFFFFFFFFFFFFFFFFFFFFFFFFFF AND DUP2 MSTORE POP POP POP POP POP POP POP PUSH3 0x2DD JUMP JUMPDEST PUSH1 0x0 DUP1 REVERT JUMPDEST PUSH1 0x0 DUP2 SWAP1 POP SWAP2 SWAP1 POP JUMP JUMPDEST PUSH3 0x109 DUP2 PUSH3 0xF4 JUMP JUMPDEST DUP2 EQ PUSH3 0x115 JUMPI PUSH1 0x0 DUP1 REVERT JUMPDEST POP JUMP JUMPDEST PUSH1 0x0 DUP2 MLOAD SWAP1 POP PUSH3 0x129 DUP2 PUSH3 0xFE JUMP JUMPDEST SWAP3 SWAP2 POP POP JUMP JUMPDEST PUSH1 0x0 PUSH20 0xFFFFFFFFFFFFFFFFFFFFFFFFFFFFFFFFFFFFFFFF DUP3 AND SWAP1 POP SWAP2 SWAP1 POP JUMP JUMPDEST PUSH1 0x0 PUSH3 0x15C DUP3 PUSH3 0x12F JUMP JUMPDEST SWAP1 POP SWAP2 SWAP1 POP JUMP JUMPDEST PUSH3 0x16E DUP2 PUSH3 0x14F JUMP JUMPDEST DUP2 EQ PUSH3 0x17A JUMPI PUSH1 0x0 DUP1 REVERT JUMPDEST POP JUMP JUMPDEST PUSH1 0x0 DUP2 MLOAD SWAP1 POP PUSH3 0x18E DUP2 PUSH3 0x163 JUMP JUMPDEST SWAP3 SWAP2 POP POP JUMP JUMPDEST PUSH1 0x0 DUP2 SWAP1 POP SWAP2 SWAP1 POP JUMP JUMPDEST PUSH3 0x1A9 DUP2 PUSH3 0x194 JUMP JUMPDEST DUP2 EQ PUSH3 0x1B5 JUMPI PUSH1 0x0 DUP1 REVERT JUMPDEST POP JUMP JUMPDEST PUSH1 0x0 DUP2 MLOAD SWAP1 POP PUSH3 0x1C9 DUP2 PUSH3 0x19E JUMP JUMPDEST SWAP3 SWAP2 POP POP JUMP JUMPDEST PUSH1 0x0 PUSH8 0xFFFFFFFFFFFFFFFF DUP3 AND SWAP1 POP SWAP2 SWAP1 POP JUMP JUMPDEST PUSH3 0x1EE DUP2 PUSH3 0x1CF JUMP JUMPDEST DUP2 EQ PUSH3 0x1FA JUMPI PUSH1 0x0 DUP1 REVERT JUMPDEST POP JUMP JUMPDEST PUSH1 0x0 DUP2 MLOAD SWAP1 POP PUSH3 0x20E DUP2 PUSH3 0x1E3 JUMP JUMPDEST SWAP3 SWAP2 POP POP JUMP JUMPDEST PUSH1 0x0 PUSH4 0xFFFFFFFF DUP3 AND SWAP1 POP SWAP2 SWAP1 POP JUMP JUMPDEST PUSH3 0x22F DUP2 PUSH3 0x214 JUMP JUMPDEST DUP2 EQ PUSH3 0x23B JUMPI PUSH1 0x0 DUP1 REVERT JUMPDEST POP JUMP JUMPDEST PUSH1 0x0 DUP2 MLOAD SWAP1 POP PUSH3 0x24F DUP2 PUSH3 0x224 JUMP JUMPDEST SWAP3 SWAP2 POP POP JUMP JUMPDEST PUSH1 0x0 DUP1 PUSH1 0x0 DUP1 PUSH1 0x0 PUSH1 0xA0 DUP7 DUP9 SUB SLT ISZERO PUSH3 0x274 JUMPI PUSH3 0x273 PUSH3 0xEF JUMP JUMPDEST JUMPDEST PUSH1 0x0 PUSH3 0x284 DUP9 DUP3 DUP10 ADD PUSH3 0x118 JUMP JUMPDEST SWAP6 POP POP PUSH1 0x20 PUSH3 0x297 DUP9 DUP3 DUP10 ADD PUSH3 0x17D JUMP JUMPDEST SWAP5 POP POP PUSH1 0x40 PUSH3 0x2AA DUP9 DUP3 DUP10 ADD PUSH3 0x1B8 JUMP JUMPDEST SWAP4 POP POP PUSH1 0x60 PUSH3 0x2BD DUP9 DUP3 DUP10 ADD PUSH3 0x1FD JUMP JUMPDEST SWAP3 POP POP PUSH1 0x80 PUSH3 0x2D0 DUP9 DUP3 DUP10 ADD PUSH3 0x23E JUMP JUMPDEST SWAP2 POP POP SWAP3 SWAP6 POP SWAP3 SWAP6 SWAP1 SWAP4 POP JUMP JUMPDEST PUSH1 0x80 MLOAD PUSH1 0xA0 MLOAD PUSH1 0xC0 MLOAD PUSH1 0xE0 MLOAD PUSH2 0x100 MLOAD PUSH2 0x120 MLOAD PUSH2 0xB25 PUSH3 0x33B PUSH1 0x0 CODECOPY PUSH1 0x0 PUSH2 0x225 ADD MSTORE PUSH1 0x0 PUSH2 0x2A5 ADD MSTORE PUSH1 0x0 PUSH2 0x282 ADD MSTORE PUSH1 0x0 PUSH2 0x261 ADD MSTORE PUSH1 0x0 DUP2 DUP2 PUSH2 0x367 ADD MSTORE PUSH2 0x4B2 ADD MSTORE PUSH1 0x0 DUP2 DUP2 PUSH2 0x139 ADD MSTORE PUSH2 0x18D ADD MSTORE PUSH2 0xB25 PUSH1 0x0 RETURN INVALID PUSH1 0x80 PUSH1 0x40 MSTORE PUSH1 0x4 CALLDATASIZE LT PUSH2 0x55 JUMPI PUSH1 0x0 CALLDATALOAD PUSH1 0xE0 SHR DUP1 PUSH4 0x1FE543E3 EQ PUSH2 0x5A JUMPI DUP1 PUSH4 0x473F1DDC EQ PUSH2 0x83 JUMPI DUP1 PUSH4 0x522A1F0B EQ PUSH2 0xAE JUMPI DUP1 PUSH4 0xC1AF5785 EQ PUSH2 0xC5 JUMPI DUP1 PUSH4 0xCEB73F45 EQ PUSH2 0xCF JUMPI DUP1 PUSH4 0xE262E402 EQ PUSH2 0x10C JUMPI JUMPDEST PUSH1 0x0 DUP1 REVERT JUMPDEST CALLVALUE DUP1 ISZERO PUSH2 0x66 JUMPI PUSH1 0x0 DUP1 REVERT JUMPDEST POP PUSH2 0x81 PUSH1 0x4 DUP1 CALLDATASIZE SUB DUP2 ADD SWAP1 PUSH2 0x7C SWAP2 SWAP1 PUSH2 0x7D5 JUMP JUMPDEST PUSH2 0x137 JUMP JUMPDEST STOP JUMPDEST CALLVALUE DUP1 ISZERO PUSH2 0x8F JUMPI PUSH1 0x0 DUP1 REVERT JUMPDEST POP PUSH2 0x98 PUSH2 0x1F7 JUMP JUMPDEST PUSH1 0x40 MLOAD PUSH2 0xA5 SWAP2 SWAP1 PUSH2 0x872 JUMP JUMPDEST PUSH1 0x40 MLOAD DUP1 SWAP2 SUB SWAP1 RETURN JUMPDEST CALLVALUE DUP1 ISZERO PUSH2 0xBA JUMPI PUSH1 0x0 DUP1 REVERT JUMPDEST POP PUSH2 0xC3 PUSH2 0x221 JUMP JUMPDEST STOP JUMPDEST PUSH2 0xCD PUSH2 0x365 JUMP JUMPDEST STOP JUMPDEST CALLVALUE DUP1 ISZERO PUSH2 0xDB JUMPI PUSH1 0x0 DUP1 REVERT JUMPDEST POP PUSH2 0xF6 PUSH1 0x4 DUP1 CALLDATASIZE SUB DUP2 ADD SWAP1 PUSH2 0xF1 SWAP2 SWAP1 PUSH2 0x88D JUMP JUMPDEST PUSH2 0x467 JUMP JUMPDEST PUSH1 0x40 MLOAD PUSH2 0x103 SWAP2 SWAP1 PUSH2 0x872 JUMP JUMPDEST PUSH1 0x40 MLOAD DUP1 SWAP2 SUB SWAP1 RETURN JUMPDEST CALLVALUE DUP1 ISZERO PUSH2 0x118 JUMPI PUSH1 0x0 DUP1 REVERT JUMPDEST POP PUSH2 0x121 PUSH2 0x4AE JUMP JUMPDEST PUSH1 0x40 MLOAD PUSH2 0x12E SWAP2 SWAP1 PUSH2 0x8C9 JUMP JUMPDEST PUSH1 0x40 MLOAD DUP1 SWAP2 SUB SWAP1 RETURN JUMPDEST PUSH32 0x0 PUSH20 0xFFFFFFFFFFFFFFFFFFFFFFFFFFFFFFFFFFFFFFFF AND CALLER PUSH20 0xFFFFFFFFFFFFFFFFFFFFFFFFFFFFFFFFFFFFFFFF AND EQ PUSH2 0x1E9 JUMPI CALLER PUSH32 0x0 PUSH1 0x40 MLOAD PUSH32 0x1CF993F400000000000000000000000000000000000000000000000000000000 DUP2 MSTORE PUSH1 0x4 ADD PUSH2 0x1E0 SWAP3 SWAP2 SWAP1 PUSH2 0x8E4 JUMP JUMPDEST PUSH1 0x40 MLOAD DUP1 SWAP2 SUB SWAP1 REVERT JUMPDEST PUSH2 0x1F3 DUP3 DUP3 PUSH2 0x4D6 JUMP JUMPDEST POP POP JUMP JUMPDEST PUSH1 0x0 PUSH1 0x1 PUSH1 0x0 SWAP1 SLOAD SWAP1 PUSH2 0x100 EXP SWAP1 DIV PUSH20 0xFFFFFFFFFFFFFFFFFFFFFFFFFFFFFFFFFFFFFFFF AND SWAP1 POP SWAP1 JUMP JUMPDEST PUSH1 0x0 PUSH32 0x0 PUSH20 0xFFFFFFFFFFFFFFFFFFFFFFFFFFFFFFFFFFFFFFFF AND PUSH4 0x5D3B1D30 PUSH32 0x0 PUSH32 0x0 PUSH1 0x3 PUSH32 0x0 PUSH1 0x1 PUSH1 0x40 MLOAD DUP7 PUSH4 0xFFFFFFFF AND PUSH1 0xE0 SHL DUP2 MSTORE PUSH1 0x4 ADD PUSH2 0x2E6 SWAP6 SWAP5 SWAP4 SWAP3 SWAP2 SWAP1 PUSH2 0x985 JUMP JUMPDEST PUSH1 0x20 PUSH1 0x40 MLOAD DUP1 DUP4 SUB DUP2 PUSH1 0x0 DUP8 GAS CALL ISZERO DUP1 ISZERO PUSH2 0x305 JUMPI RETURNDATASIZE PUSH1 0x0 DUP1 RETURNDATACOPY RETURNDATASIZE PUSH1 0x0 REVERT JUMPDEST POP POP POP POP PUSH1 0x40 MLOAD RETURNDATASIZE PUSH1 0x1F NOT PUSH1 0x1F DUP3 ADD AND DUP3 ADD DUP1 PUSH1 0x40 MSTORE POP DUP2 ADD SWAP1 PUSH2 0x329 SWAP2 SWAP1 PUSH2 0x9ED JUMP JUMPDEST SWAP1 POP PUSH32 0xEBF56642252004C18A776F30D528E7A0CE8C5DB14B6596FB6550F630C8A24C6C DUP2 PUSH1 0x40 MLOAD PUSH2 0x35A SWAP2 SWAP1 PUSH2 0x8C9 JUMP JUMPDEST PUSH1 0x40 MLOAD DUP1 SWAP2 SUB SWAP1 LOG1 POP JUMP JUMPDEST PUSH32 0x0 CALLVALUE LT ISZERO PUSH2 0x3BF JUMPI PUSH1 0x40 MLOAD PUSH32 0xC7C441BF00000000000000000000000000000000000000000000000000000000 DUP2 MSTORE PUSH1 0x4 ADD PUSH1 0x40 MLOAD DUP1 SWAP2 SUB SWAP1 REVERT JUMPDEST PUSH1 0x0 CALLER SWAP1 DUP1 PUSH1 0x1 DUP2 SLOAD ADD DUP1 DUP3 SSTORE DUP1 SWAP2 POP POP PUSH1 0x1 SWAP1 SUB SWAP1 PUSH1 0x0 MSTORE PUSH1 0x20 PUSH1 0x0 KECCAK256 ADD PUSH1 0x0 SWAP1 SWAP2 SWAP1 SWAP2 SWAP1 SWAP2 PUSH2 0x100 EXP DUP2 SLOAD DUP2 PUSH20 0xFFFFFFFFFFFFFFFFFFFFFFFFFFFFFFFFFFFFFFFF MUL NOT AND SWAP1 DUP4 PUSH20 0xFFFFFFFFFFFFFFFFFFFFFFFFFFFFFFFFFFFFFFFF AND MUL OR SWAP1 SSTORE POP CALLER PUSH20 0xFFFFFFFFFFFFFFFFFFFFFFFFFFFFFFFFFFFFFFFF AND PUSH32 0xF1F4BCD3F74994E09674CBAFFE79E4DCF31B8892B2F750B1926A36DC6A5CD01C PUSH1 0x40 MLOAD PUSH1 0x40 MLOAD DUP1 SWAP2 SUB SWAP1 LOG2 JUMP JUMPDEST PUSH1 0x0 DUP1 DUP3 DUP2 SLOAD DUP2 LT PUSH2 0x47C JUMPI PUSH2 0x47B PUSH2 0xA1A JUMP JUMPDEST JUMPDEST SWAP1 PUSH1 0x0 MSTORE PUSH1 0x20 PUSH1 0x0 KECCAK256 ADD PUSH1 0x0 SWAP1 SLOAD SWAP1 PUSH2 0x100 EXP SWAP1 DIV PUSH20 0xFFFFFFFFFFFFFFFFFFFFFFFFFFFFFFFFFFFFFFFF AND SWAP1 POP SWAP2 SWAP1 POP JUMP JUMPDEST PUSH1 0x0 PUSH32 0x0 SWAP1 POP SWAP1 JUMP JUMPDEST PUSH1 0x0 DUP1 DUP1 SLOAD SWAP1 POP DUP3 PUSH1 0x0 DUP2 MLOAD DUP2 LT PUSH2 0x4F1 JUMPI PUSH2 0x4F0 PUSH2 0xA1A JUMP JUMPDEST JUMPDEST PUSH1 0x20 MUL PUSH1 0x20 ADD ADD MLOAD PUSH2 0x503 SWAP2 SWAP1 PUSH2 0xA78 JUMP JUMPDEST SWAP1 POP PUSH1 0x0 DUP1 DUP3 DUP2 SLOAD DUP2 LT PUSH2 0x51A JUMPI PUSH2 0x519 PUSH2 0xA1A JUMP JUMPDEST JUMPDEST SWAP1 PUSH1 0x0 MSTORE PUSH1 0x20 PUSH1 0x0 KECCAK256 ADD PUSH1 0x0 SWAP1 SLOAD SWAP1 PUSH2 0x100 EXP SWAP1 DIV PUSH20 0xFFFFFFFFFFFFFFFFFFFFFFFFFFFFFFFFFFFFFFFF AND SWAP1 POP DUP1 PUSH1 0x1 PUSH1 0x0 PUSH2 0x100 EXP DUP2 SLOAD DUP2 PUSH20 0xFFFFFFFFFFFFFFFFFFFFFFFFFFFFFFFFFFFFFFFF MUL NOT AND SWAP1 DUP4 PUSH20 0xFFFFFFFFFFFFFFFFFFFFFFFFFFFFFFFFFFFFFFFF AND MUL OR SWAP1 SSTORE POP PUSH1 0x0 DUP2 PUSH20 0xFFFFFFFFFFFFFFFFFFFFFFFFFFFFFFFFFFFFFFFF AND SELFBALANCE PUSH1 0x40 MLOAD PUSH2 0x5AE SWAP1 PUSH2 0xADA JUMP JUMPDEST PUSH1 0x0 PUSH1 0x40 MLOAD DUP1 DUP4 SUB DUP2 DUP6 DUP8 GAS CALL SWAP3 POP POP POP RETURNDATASIZE DUP1 PUSH1 0x0 DUP2 EQ PUSH2 0x5EB JUMPI PUSH1 0x40 MLOAD SWAP2 POP PUSH1 0x1F NOT PUSH1 0x3F RETURNDATASIZE ADD AND DUP3 ADD PUSH1 0x40 MSTORE RETURNDATASIZE DUP3 MSTORE RETURNDATASIZE PUSH1 0x0 PUSH1 0x20 DUP5 ADD RETURNDATACOPY PUSH2 0x5F0 JUMP JUMPDEST PUSH1 0x60 SWAP2 POP JUMPDEST POP POP SWAP1 POP DUP1 PUSH2 0x62B JUMPI PUSH1 0x40 MLOAD PUSH32 0xC7C24B4E00000000000000000000000000000000000000000000000000000000 DUP2 MSTORE PUSH1 0x4 ADD PUSH1 0x40 MLOAD DUP1 SWAP2 SUB SWAP1 REVERT JUMPDEST POP POP POP POP POP JUMP JUMPDEST PUSH1 0x0 PUSH1 0x40 MLOAD SWAP1 POP SWAP1 JUMP JUMPDEST PUSH1 0x0 DUP1 REVERT JUMPDEST PUSH1 0x0 DUP1 REVERT JUMPDEST PUSH1 0x0 DUP2 SWAP1 POP SWAP2 SWAP1 POP JUMP JUMPDEST PUSH2 0x659 DUP2 PUSH2 0x646 JUMP JUMPDEST DUP2 EQ PUSH2 0x664 JUMPI PUSH1 0x0 DUP1 REVERT JUMPDEST POP JUMP JUMPDEST PUSH1 0x0 DUP2 CALLDATALOAD SWAP1 POP PUSH2 0x676 DUP2 PUSH2 0x650 JUMP JUMPDEST SWAP3 SWAP2 POP POP JUMP JUMPDEST PUSH1 0x0 DUP1 REVERT JUMPDEST PUSH1 0x0 PUSH1 0x1F NOT PUSH1 0x1F DUP4 ADD AND SWAP1 POP SWAP2 SWAP1 POP JUMP JUMPDEST PUSH32 0x4E487B7100000000000000000000000000000000000000000000000000000000 PUSH1 0x0 MSTORE PUSH1 0x41 PUSH1 0x4 MSTORE PUSH1 0x24 PUSH1 0x0 REVERT JUMPDEST PUSH2 0x6CA DUP3 PUSH2 0x681 JUMP JUMPDEST DUP2 ADD DUP2 DUP2 LT PUSH8 0xFFFFFFFFFFFFFFFF DUP3 GT OR ISZERO PUSH2 0x6E9 JUMPI PUSH2 0x6E8 PUSH2 0x692 JUMP JUMPDEST JUMPDEST DUP1 PUSH1 0x40 MSTORE POP POP POP JUMP JUMPDEST PUSH1 0x0 PUSH2 0x6FC PUSH2 0x632 JUMP JUMPDEST SWAP1 POP PUSH2 0x708 DUP3 DUP3 PUSH2 0x6C1 JUMP JUMPDEST SWAP2 SWAP1 POP JUMP JUMPDEST PUSH1 0x0 PUSH8 0xFFFFFFFFFFFFFFFF DUP3 GT ISZERO PUSH2 0x728 JUMPI PUSH2 0x727 PUSH2 0x692 JUMP JUMPDEST JUMPDEST PUSH1 0x20 DUP3 MUL SWAP1 POP PUSH1 0x20 DUP2 ADD SWAP1 POP SWAP2 SWAP1 POP JUMP JUMPDEST PUSH1 0x0 DUP1 REVERT JUMPDEST PUSH1 0x0 PUSH2 0x751 PUSH2 0x74C DUP5 PUSH2 0x70D JUMP JUMPDEST PUSH2 0x6F2 JUMP JUMPDEST SWAP1 POP DUP1 DUP4 DUP3 MSTORE PUSH1 0x20 DUP3 ADD SWAP1 POP PUSH1 0x20 DUP5 MUL DUP4 ADD DUP6 DUP2 GT ISZERO PUSH2 0x774 JUMPI PUSH2 0x773 PUSH2 0x739 JUMP JUMPDEST JUMPDEST DUP4 JUMPDEST DUP2 DUP2 LT ISZERO PUSH2 0x79D JUMPI DUP1 PUSH2 0x789 DUP9 DUP3 PUSH2 0x667 JUMP JUMPDEST DUP5 MSTORE PUSH1 0x20 DUP5 ADD SWAP4 POP POP PUSH1 0x20 DUP2 ADD SWAP1 POP PUSH2 0x776 JUMP JUMPDEST POP POP POP SWAP4 SWAP3 POP POP POP JUMP JUMPDEST PUSH1 0x0 DUP3 PUSH1 0x1F DUP4 ADD SLT PUSH2 0x7BC JUMPI PUSH2 0x7BB PUSH2 0x67C JUMP JUMPDEST JUMPDEST DUP2 CALLDATALOAD PUSH2 0x7CC DUP5 DUP3 PUSH1 0x20 DUP7 ADD PUSH2 0x73E JUMP JUMPDEST SWAP2 POP POP SWAP3 SWAP2 POP POP JUMP JUMPDEST PUSH1 0x0 DUP1 PUSH1 0x40 DUP4 DUP6 SUB SLT ISZERO PUSH2 0x7EC JUMPI PUSH2 0x7EB PUSH2 0x63C JUMP JUMPDEST JUMPDEST PUSH1 0x0 PUSH2 0x7FA DUP6 DUP3 DUP7 ADD PUSH2 0x667 JUMP JUMPDEST SWAP3 POP POP PUSH1 0x20 DUP4 ADD CALLDATALOAD PUSH8 0xFFFFFFFFFFFFFFFF DUP2 GT ISZERO PUSH2 0x81B JUMPI PUSH2 0x81A PUSH2 0x641 JUMP JUMPDEST JUMPDEST PUSH2 0x827 DUP6 DUP3 DUP7 ADD PUSH2 0x7A7 JUMP JUMPDEST SWAP2 POP POP SWAP3 POP SWAP3 SWAP1 POP JUMP JUMPDEST PUSH1 0x0 PUSH20 0xFFFFFFFFFFFFFFFFFFFFFFFFFFFFFFFFFFFFFFFF DUP3 AND SWAP1 POP SWAP2 SWAP1 POP JUMP JUMPDEST PUSH1 0x0 PUSH2 0x85C DUP3 PUSH2 0x831 JUMP JUMPDEST SWAP1 POP SWAP2 SWAP1 POP JUMP JUMPDEST PUSH2 0x86C DUP2 PUSH2 0x851 JUMP JUMPDEST DUP3 MSTORE POP POP JUMP JUMPDEST PUSH1 0x0 PUSH1 0x20 DUP3 ADD SWAP1 POP PUSH2 0x887 PUSH1 0x0 DUP4 ADD DUP5 PUSH2 0x863 JUMP JUMPDEST SWAP3 SWAP2 POP POP JUMP JUMPDEST PUSH1 0x0 PUSH1 0x20 DUP3 DUP5 SUB SLT ISZERO PUSH2 0x8A3 JUMPI PUSH2 0x8A2 PUSH2 0x63C JUMP JUMPDEST JUMPDEST PUSH1 0x0 PUSH2 0x8B1 DUP5 DUP3 DUP6 ADD PUSH2 0x667 JUMP JUMPDEST SWAP2 POP POP SWAP3 SWAP2 POP POP JUMP JUMPDEST PUSH2 0x8C3 DUP2 PUSH2 0x646 JUMP JUMPDEST DUP3 MSTORE POP POP JUMP JUMPDEST PUSH1 0x0 PUSH1 0x20 DUP3 ADD SWAP1 POP PUSH2 0x8DE PUSH1 0x0 DUP4 ADD DUP5 PUSH2 0x8BA JUMP JUMPDEST SWAP3 SWAP2 POP POP JUMP JUMPDEST PUSH1 0x0 PUSH1 0x40 DUP3 ADD SWAP1 POP PUSH2 0x8F9 PUSH1 0x0 DUP4 ADD DUP6 PUSH2 0x863 JUMP JUMPDEST PUSH2 0x906 PUSH1 0x20 DUP4 ADD DUP5 PUSH2 0x863 JUMP JUMPDEST SWAP4 SWAP3 POP POP POP JUMP JUMPDEST PUSH1 0x0 DUP2 SWAP1 POP SWAP2 SWAP1 POP JUMP JUMPDEST PUSH2 0x920 DUP2 PUSH2 0x90D JUMP JUMPDEST DUP3 MSTORE POP POP JUMP JUMPDEST PUSH1 0x0 PUSH8 0xFFFFFFFFFFFFFFFF DUP3 AND SWAP1 POP SWAP2 SWAP1 POP JUMP JUMPDEST PUSH2 0x943 DUP2 PUSH2 0x926 JUMP JUMPDEST DUP3 MSTORE POP POP JUMP JUMPDEST PUSH1 0x0 PUSH2 0xFFFF DUP3 AND SWAP1 POP SWAP2 SWAP1 POP JUMP JUMPDEST PUSH2 0x960 DUP2 PUSH2 0x949 JUMP JUMPDEST DUP3 MSTORE POP POP JUMP JUMPDEST PUSH1 0x0 PUSH4 0xFFFFFFFF DUP3 AND SWAP1 POP SWAP2 SWAP1 POP JUMP JUMPDEST PUSH2 0x97F DUP2 PUSH2 0x966 JUMP JUMPDEST DUP3 MSTORE POP POP JUMP JUMPDEST PUSH1 0x0 PUSH1 0xA0 DUP3 ADD SWAP1 POP PUSH2 0x99A PUSH1 0x0 DUP4 ADD DUP9 PUSH2 0x917 JUMP JUMPDEST PUSH2 0x9A7 PUSH1 0x20 DUP4 ADD DUP8 PUSH2 0x93A JUMP JUMPDEST PUSH2 0x9B4 PUSH1 0x40 DUP4 ADD DUP7 PUSH2 0x957 JUMP JUMPDEST PUSH2 0x9C1 PUSH1 0x60 DUP4 ADD DUP6 PUSH2 0x976 JUMP JUMPDEST PUSH2 0x9CE PUSH1 0x80 DUP4 ADD DUP5 PUSH2 0x976 JUMP JUMPDEST SWAP7 SWAP6 POP POP POP POP POP POP JUMP JUMPDEST PUSH1 0x0 DUP2 MLOAD SWAP1 POP PUSH2 0x9E7 DUP2 PUSH2 0x650 JUMP JUMPDEST SWAP3 SWAP2 POP POP JUMP JUMPDEST PUSH1 0x0 PUSH1 0x20 DUP3 DUP5 SUB SLT ISZERO PUSH2 0xA03 JUMPI PUSH2 0xA02 PUSH2 0x63C JUMP JUMPDEST JUMPDEST PUSH1 0x0 PUSH2 0xA11 DUP5 DUP3 DUP6 ADD PUSH2 0x9D8 JUMP JUMPDEST SWAP2 POP POP SWAP3 SWAP2 POP POP JUMP JUMPDEST PUSH32 0x4E487B7100000000000000000000000000000000000000000000000000000000 PUSH1 0x0 MSTORE PUSH1 0x32 PUSH1 0x4 MSTORE PUSH1 0x24 PUSH1 0x0 REVERT JUMPDEST PUSH32 0x4E487B7100000000000000000000000000000000000000000000000000000000 PUSH1 0x0 MSTORE PUSH1 0x12 PUSH1 0x4 MSTORE PUSH1 0x24 PUSH1 0x0 REVERT JUMPDEST PUSH1 0x0 PUSH2 0xA83 DUP3 PUSH2 0x646 JUMP JUMPDEST SWAP2 POP PUSH2 0xA8E DUP4 PUSH2 0x646 JUMP JUMPDEST SWAP3 POP DUP3 PUSH2 0xA9E JUMPI PUSH2 0xA9D PUSH2 0xA49 JUMP JUMPDEST JUMPDEST DUP3 DUP3 MOD SWAP1 POP SWAP3 SWAP2 POP POP JUMP JUMPDEST PUSH1 0x0 DUP2 SWAP1 POP SWAP3 SWAP2 POP POP JUMP JUMPDEST POP JUMP JUMPDEST PUSH1 0x0 PUSH2 0xAC4 PUSH1 0x0 DUP4 PUSH2 0xAA9 JUMP JUMPDEST SWAP2 POP PUSH2 0xACF DUP3 PUSH2 0xAB4 JUMP JUMPDEST PUSH1 0x0 DUP3 ADD SWAP1 POP SWAP2 SWAP1 POP JUMP JUMPDEST PUSH1 0x0 PUSH2 0xAE5 DUP3 PUSH2 0xAB7 JUMP JUMPDEST SWAP2 POP DUP2 SWAP1 POP SWAP2 SWAP1 POP JUMP INVALID LOG2 PUSH5 0x6970667358 0x22 SLT KECCAK256 EXTCODEHASH PUSH4 0x54C32BCE XOR BLOCKHASH PUSH9 0xD9A8C7A9198374108F 0xE9 0xD2 0xB3 ADD 0xC 0xF SGT PUSH8 0x23D6AC98D7E66473 PUSH16 0x6C634300081100330000000000000000 "},"methodIdentifiers":{"enterLottery()":"c1af5785","getEntryFees()":"e262e402","getPlayerAt(uint256)":"ceb73f45","getRecentWinner()":"473f1ddc","rawFulfillRandomWords(uint256,uint256[])":"1fe543e3","requestRandomWinner()":"522a1f0b"}}}}}