{
  "_format": "hh-sol-artifact-1",
  "contractName": "Lottery",
  "sourceName": "contracts/lottery.sol",
  "abi": [
    {
      "inputs": [
        {
          "internalType": "address",
          "name": "vrfCoordinator",
          "type": "address"
        },
        {
          "internalType": "uint64",
          "name": "subscriptionId",
          "type": "uint64"
        },
        {
          "internalType": "bytes32",
          "name": "gasLane",
          "type": "bytes32"
        },
        {
          "internalType": "uint256",
          "name": "interval",
          "type": "uint256"
        },
        {
          "internalType": "uint256",
          "name": "entranceFees",
          "type": "uint256"
        },
        {
          "internalType": "uint32",
          "name": "callbackGasLimit",
          "type": "uint32"
        }
      ],
      "stateMutability": "nonpayable",
      "type": "constructor"
    },
    {
      "inputs": [
        {
          "internalType": "address",
          "name": "have",
          "type": "address"
        },
        {
          "internalType": "address",
          "name": "want",
          "type": "address"
        }
      ],
      "name": "OnlyCoordinatorCanFulfill",
      "type": "error"
    },
    {
      "inputs": [],
      "name": "lottery__LotteryNotOpen",
      "type": "error"
    },
    {
      "inputs": [],
      "name": "lottery__NotEnoughETHEntered",
      "type": "error"
    },
    {
      "inputs": [],
      "name": "lottery__TransactionFailed",
      "type": "error"
    },
    {
      "inputs": [
        {
          "internalType": "uint256",
          "name": "currentBalance",
          "type": "uint256"
        },
        {
          "internalType": "uint256",
          "name": "noOfPlayers",
          "type": "uint256"
        },
        {
          "internalType": "uint256",
          "name": "lotteryState",
          "type": "uint256"
        }
      ],
      "name": "lottery__UpkeepNotNeeded",
      "type": "error"
    },
    {
      "anonymous": false,
      "inputs": [
        {
          "indexed": true,
          "internalType": "address",
          "name": "player",
          "type": "address"
        }
      ],
      "name": "Lottery_Enter",
      "type": "event"
    },
    {
      "anonymous": false,
      "inputs": [
        {
          "indexed": false,
          "internalType": "uint256",
          "name": "requestId",
          "type": "uint256"
        }
      ],
      "name": "RequestedLotteryWinner",
      "type": "event"
    },
    {
      "inputs": [
        {
          "internalType": "bytes",
          "name": "",
          "type": "bytes"
        }
      ],
      "name": "checkUpkeep",
      "outputs": [
        {
          "internalType": "bool",
          "name": "upkeepNeeded",
          "type": "bool"
        },
        {
          "internalType": "bytes",
          "name": "",
          "type": "bytes"
        }
      ],
      "stateMutability": "view",
      "type": "function"
    },
    {
      "inputs": [],
      "name": "enterLottery",
      "outputs": [],
      "stateMutability": "payable",
      "type": "function"
    },
    {
      "inputs": [],
      "name": "getEntranceFee",
      "outputs": [
        {
          "internalType": "uint256",
          "name": "",
          "type": "uint256"
        }
      ],
      "stateMutability": "view",
      "type": "function"
    },
    {
      "inputs": [],
      "name": "getInterval",
      "outputs": [
        {
          "internalType": "uint256",
          "name": "",
          "type": "uint256"
        }
      ],
      "stateMutability": "view",
      "type": "function"
    },
    {
      "inputs": [],
      "name": "getLastTimeStamp",
      "outputs": [
        {
          "internalType": "uint256",
          "name": "",
          "type": "uint256"
        }
      ],
      "stateMutability": "view",
      "type": "function"
    },
    {
      "inputs": [],
      "name": "getLotteryState",
      "outputs": [
        {
          "internalType": "enum Lottery.LotteryState",
          "name": "",
          "type": "uint8"
        }
      ],
      "stateMutability": "view",
      "type": "function"
    },
    {
      "inputs": [],
      "name": "getNoOfPlayers",
      "outputs": [
        {
          "internalType": "uint256",
          "name": "",
          "type": "uint256"
        }
      ],
      "stateMutability": "view",
      "type": "function"
    },
    {
      "inputs": [],
      "name": "getNumWords",
      "outputs": [
        {
          "internalType": "uint256",
          "name": "",
          "type": "uint256"
        }
      ],
      "stateMutability": "pure",
      "type": "function"
    },
    {
      "inputs": [
        {
          "internalType": "uint256",
          "name": "index",
          "type": "uint256"
        }
      ],
      "name": "getPlayerAt",
      "outputs": [
        {
          "internalType": "address",
          "name": "",
          "type": "address"
        }
      ],
      "stateMutability": "view",
      "type": "function"
    },
    {
      "inputs": [],
      "name": "getRecentWinner",
      "outputs": [
        {
          "internalType": "address",
          "name": "",
          "type": "address"
        }
      ],
      "stateMutability": "view",
      "type": "function"
    },
    {
      "inputs": [],
      "name": "getRequestConfirmations",
      "outputs": [
        {
          "internalType": "uint256",
          "name": "",
          "type": "uint256"
        }
      ],
      "stateMutability": "pure",
      "type": "function"
    },
    {
      "inputs": [
        {
          "internalType": "bytes",
          "name": "",
          "type": "bytes"
        }
      ],
      "name": "performUpkeep",
      "outputs": [],
      "stateMutability": "nonpayable",
      "type": "function"
    },
    {
      "inputs": [
        {
          "internalType": "uint256",
          "name": "requestId",
          "type": "uint256"
        },
        {
          "internalType": "uint256[]",
          "name": "randomWords",
          "type": "uint256[]"
        }
      ],
      "name": "rawFulfillRandomWords",
      "outputs": [],
      "stateMutability": "nonpayable",
      "type": "function"
    }
  ],
  "bytecode": "0x6101606040523480156200001257600080fd5b506040516200180438038062001804833981810160405281019062000038919062000294565b858073ffffffffffffffffffffffffffffffffffffffff1660808173ffffffffffffffffffffffffffffffffffffffff1681525050508160a081815250508360c081815250508467ffffffffffffffff1660e08167ffffffffffffffff16815250508063ffffffff166101008163ffffffff16815250508573ffffffffffffffffffffffffffffffffffffffff166101208173ffffffffffffffffffffffffffffffffffffffff16815250506000600160006101000a81548160ff021916908360018111156200010d576200010c62000330565b5b0217905550826101408181525050426002819055505050505050506200035f565b600080fd5b600073ffffffffffffffffffffffffffffffffffffffff82169050919050565b6000620001608262000133565b9050919050565b620001728162000153565b81146200017e57600080fd5b50565b600081519050620001928162000167565b92915050565b600067ffffffffffffffff82169050919050565b620001b78162000198565b8114620001c357600080fd5b50565b600081519050620001d781620001ac565b92915050565b6000819050919050565b620001f281620001dd565b8114620001fe57600080fd5b50565b6000815190506200021281620001e7565b92915050565b6000819050919050565b6200022d8162000218565b81146200023957600080fd5b50565b6000815190506200024d8162000222565b92915050565b600063ffffffff82169050919050565b6200026e8162000253565b81146200027a57600080fd5b50565b6000815190506200028e8162000263565b92915050565b60008060008060008060c08789031215620002b457620002b36200012e565b5b6000620002c489828a0162000181565b9650506020620002d789828a01620001c6565b9550506040620002ea89828a0162000201565b9450506060620002fd89828a016200023c565b93505060806200031089828a016200023c565b92505060a06200032389828a016200027d565b9150509295509295509295565b7f4e487b7100000000000000000000000000000000000000000000000000000000600052602160045260246000fd5b60805160a05160c05160e051610100516101205161014051611435620003cf60003960008181610690015261072d01526000610435015260006104b501526000610492015260006104710152600081816102fa0152610753015260008181610320015261037401526114356000f3fe6080604052600436106100c25760003560e01c80635f1b0fd81161007f57806391ad27b41161005957806391ad27b414610259578063c1af578514610284578063c1c244e81461028e578063ceb73f45146102b9576100c2565b80635f1b0fd8146101c55780636b68c03c146101f05780636e04ff0d1461021b576100c2565b806309bc33a7146100c75780631fe543e3146100f2578063319b97c41461011b5780634585e33b14610146578063473f1ddc1461016f57806353a2c19a1461019a575b600080fd5b3480156100d357600080fd5b506100dc6102f6565b6040516100e99190610bbf565b60405180910390f35b3480156100fe57600080fd5b5061011960048036038101906101149190610d73565b61031e565b005b34801561012757600080fd5b506101306103de565b60405161013d9190610bbf565b60405180910390f35b34801561015257600080fd5b5061016d60048036038101906101689190610e2a565b6103ea565b005b34801561017b57600080fd5b506101846105e4565b6040516101919190610eb8565b60405180910390f35b3480156101a657600080fd5b506101af61060e565b6040516101bc9190610bbf565b60405180910390f35b3480156101d157600080fd5b506101da61061d565b6040516101e79190610bbf565b60405180910390f35b3480156101fc57600080fd5b5061020561062a565b6040516102129190610f4a565b60405180910390f35b34801561022757600080fd5b50610242600480360381019061023d919061101a565b610641565b6040516102509291906110fd565b60405180910390f35b34801561026557600080fd5b5061026e610729565b60405161027b9190610bbf565b60405180910390f35b61028c610751565b005b34801561029a57600080fd5b506102a36108c0565b6040516102b09190610bbf565b60405180910390f35b3480156102c557600080fd5b506102e060048036038101906102db919061112d565b6108ca565b6040516102ed9190610eb8565b60405180910390f35b60007f0000000000000000000000000000000000000000000000000000000000000000905090565b7f000000000000000000000000000000000000000000000000000000000000000073ffffffffffffffffffffffffffffffffffffffff163373ffffffffffffffffffffffffffffffffffffffff16146103d057337f00000000000000000000000000000000000000000000000000000000000000006040517f1cf993f40000000000000000000000000000000000000000000000000000000081526004016103c792919061115a565b60405180910390fd5b6103da8282610911565b5050565b60008080549050905090565b600061040460405180602001604052806000815250610641565b50905060018060006101000a81548160ff0219169083600181111561042c5761042b610ed3565b5b021790555060007f000000000000000000000000000000000000000000000000000000000000000073ffffffffffffffffffffffffffffffffffffffff16635d3b1d307f00000000000000000000000000000000000000000000000000000000000000007f000000000000000000000000000000000000000000000000000000000000000060037f000000000000000000000000000000000000000000000000000000000000000060016040518663ffffffff1660e01b81526004016104f69594939291906111fb565b6020604051808303816000875af1158015610515573d6000803e3d6000fd5b505050506040513d601f19601f820116820180604052508101906105399190611263565b9050816105a75747600080549050600160009054906101000a900460ff16600181111561056957610568610ed3565b5b6040517f7d1fd57900000000000000000000000000000000000000000000000000000000815260040161059e93929190611290565b60405180910390fd5b7febf56642252004c18a776f30d528e7a0ce8c5db14b6596fb6550f630c8a24c6c816040516105d69190610bbf565b60405180910390a150505050565b6000600360009054906101000a900473ffffffffffffffffffffffffffffffffffffffff16905090565b6000600163ffffffff16905090565b6000600361ffff16905090565b6000600160009054906101000a900460ff16905090565b600060606000600160009054906101000a900460ff16600181111561066957610668610ed3565b5b6000600181111561067d5761067c610ed3565b5b14905060008060008054905011905060007f0000000000000000000000000000000000000000000000000000000000000000600254426106bd91906112f6565b119050600080471190508380156106d15750815b80156106da5750805b80156106e35750825b9550856040518060400160405280600381526020017f30783000000000000000000000000000000000000000000000000000000000008152509550955050505050915091565b60007f0000000000000000000000000000000000000000000000000000000000000000905090565b7f00000000000000000000000000000000000000000000000000000000000000003410156107ab576040517fc7c441bf00000000000000000000000000000000000000000000000000000000815260040160405180910390fd5b600060018111156107bf576107be610ed3565b5b600160009054906101000a900460ff1660018111156107e1576107e0610ed3565b5b14610818576040517f5451515800000000000000000000000000000000000000000000000000000000815260040160405180910390fd5b6000339080600181540180825580915050600190039060005260206000200160009091909190916101000a81548173ffffffffffffffffffffffffffffffffffffffff021916908373ffffffffffffffffffffffffffffffffffffffff1602179055503373ffffffffffffffffffffffffffffffffffffffff167ff1f4bcd3f74994e09674cbaffe79e4dcf31b8892b2f750b1926a36dc6a5cd01c60405160405180910390a2565b6000600254905090565b60008082815481106108df576108de61132a565b5b9060005260206000200160009054906101000a900473ffffffffffffffffffffffffffffffffffffffff169050919050565b600080805490508260008151811061092c5761092b61132a565b5b602002602001015161093e9190611388565b905060008082815481106109555761095461132a565b5b9060005260206000200160009054906101000a900473ffffffffffffffffffffffffffffffffffffffff16905080600360006101000a81548173ffffffffffffffffffffffffffffffffffffffff021916908373ffffffffffffffffffffffffffffffffffffffff1602179055506000600160006101000a81548160ff021916908360018111156109e9576109e8610ed3565b5b0217905550600067ffffffffffffffff811115610a0957610a08610c30565b5b604051908082528060200260200182016040528015610a375781602001602082028036833780820191505090505b5060009080519060200190610a4d929190610aff565b504260028190555060008173ffffffffffffffffffffffffffffffffffffffff1647604051610a7b906113ea565b60006040518083038185875af1925050503d8060008114610ab8576040519150601f19603f3d011682016040523d82523d6000602084013e610abd565b606091505b5050905080610af8576040517fc7c24b4e00000000000000000000000000000000000000000000000000000000815260040160405180910390fd5b5050505050565b828054828255906000526020600020908101928215610b78579160200282015b82811115610b775782518260006101000a81548173ffffffffffffffffffffffffffffffffffffffff021916908373ffffffffffffffffffffffffffffffffffffffff16021790555091602001919060010190610b1f565b5b509050610b859190610b89565b5090565b5b80821115610ba2576000816000905550600101610b8a565b5090565b6000819050919050565b610bb981610ba6565b82525050565b6000602082019050610bd46000830184610bb0565b92915050565b6000604051905090565b600080fd5b600080fd5b610bf781610ba6565b8114610c0257600080fd5b50565b600081359050610c1481610bee565b92915050565b600080fd5b6000601f19601f8301169050919050565b7f4e487b7100000000000000000000000000000000000000000000000000000000600052604160045260246000fd5b610c6882610c1f565b810181811067ffffffffffffffff82111715610c8757610c86610c30565b5b80604052505050565b6000610c9a610bda565b9050610ca68282610c5f565b919050565b600067ffffffffffffffff821115610cc657610cc5610c30565b5b602082029050602081019050919050565b600080fd5b6000610cef610cea84610cab565b610c90565b90508083825260208201905060208402830185811115610d1257610d11610cd7565b5b835b81811015610d3b5780610d278882610c05565b845260208401935050602081019050610d14565b5050509392505050565b600082601f830112610d5a57610d59610c1a565b5b8135610d6a848260208601610cdc565b91505092915050565b60008060408385031215610d8a57610d89610be4565b5b6000610d9885828601610c05565b925050602083013567ffffffffffffffff811115610db957610db8610be9565b5b610dc585828601610d45565b9150509250929050565b600080fd5b60008083601f840112610dea57610de9610c1a565b5b8235905067ffffffffffffffff811115610e0757610e06610dcf565b5b602083019150836001820283011115610e2357610e22610cd7565b5b9250929050565b60008060208385031215610e4157610e40610be4565b5b600083013567ffffffffffffffff811115610e5f57610e5e610be9565b5b610e6b85828601610dd4565b92509250509250929050565b600073ffffffffffffffffffffffffffffffffffffffff82169050919050565b6000610ea282610e77565b9050919050565b610eb281610e97565b82525050565b6000602082019050610ecd6000830184610ea9565b92915050565b7f4e487b7100000000000000000000000000000000000000000000000000000000600052602160045260246000fd5b60028110610f1357610f12610ed3565b5b50565b6000819050610f2482610f02565b919050565b6000610f3482610f16565b9050919050565b610f4481610f29565b82525050565b6000602082019050610f5f6000830184610f3b565b92915050565b600080fd5b600067ffffffffffffffff821115610f8557610f84610c30565b5b610f8e82610c1f565b9050602081019050919050565b82818337600083830152505050565b6000610fbd610fb884610f6a565b610c90565b905082815260208101848484011115610fd957610fd8610f65565b5b610fe4848285610f9b565b509392505050565b600082601f83011261100157611000610c1a565b5b8135611011848260208601610faa565b91505092915050565b6000602082840312156110305761102f610be4565b5b600082013567ffffffffffffffff81111561104e5761104d610be9565b5b61105a84828501610fec565b91505092915050565b60008115159050919050565b61107881611063565b82525050565b600081519050919050565b600082825260208201905092915050565b60005b838110156110b857808201518184015260208101905061109d565b60008484015250505050565b60006110cf8261107e565b6110d98185611089565b93506110e981856020860161109a565b6110f281610c1f565b840191505092915050565b6000604082019050611112600083018561106f565b818103602083015261112481846110c4565b90509392505050565b60006020828403121561114357611142610be4565b5b600061115184828501610c05565b91505092915050565b600060408201905061116f6000830185610ea9565b61117c6020830184610ea9565b9392505050565b6000819050919050565b61119681611183565b82525050565b600067ffffffffffffffff82169050919050565b6111b98161119c565b82525050565b600061ffff82169050919050565b6111d6816111bf565b82525050565b600063ffffffff82169050919050565b6111f5816111dc565b82525050565b600060a082019050611210600083018861118d565b61121d60208301876111b0565b61122a60408301866111cd565b61123760608301856111ec565b61124460808301846111ec565b9695505050505050565b60008151905061125d81610bee565b92915050565b60006020828403121561127957611278610be4565b5b60006112878482850161124e565b91505092915050565b60006060820190506112a56000830186610bb0565b6112b26020830185610bb0565b6112bf6040830184610bb0565b949350505050565b7f4e487b7100000000000000000000000000000000000000000000000000000000600052601160045260246000fd5b600061130182610ba6565b915061130c83610ba6565b9250828203905081811115611324576113236112c7565b5b92915050565b7f4e487b7100000000000000000000000000000000000000000000000000000000600052603260045260246000fd5b7f4e487b7100000000000000000000000000000000000000000000000000000000600052601260045260246000fd5b600061139382610ba6565b915061139e83610ba6565b9250826113ae576113ad611359565b5b828206905092915050565b600081905092915050565b50565b60006113d46000836113b9565b91506113df826113c4565b600082019050919050565b60006113f5826113c7565b915081905091905056fea2646970667358221220ea1521d3f06adbf5206203ae9d95f21a7846ad1443ac33f5b6cda6e9e20e5f2c64736f6c63430008110033",
  "linkReferences": {},
  "deployedLinkReferences": {}
}