{
  "_format": "hh-sol-artifact-1",
  "contractName": "Lottery",
  "sourceName": "contracts/lottery.sol",
  "abi": [
    {
      "inputs": [
        {
          "internalType": "uint256",
          "name": "entranceFees",
          "type": "uint256"
        },
        {
          "internalType": "address",
          "name": "vrfCoordinator",
          "type": "address"
        },
        {
          "internalType": "bytes32",
          "name": "gasLane",
          "type": "bytes32"
        },
        {
          "internalType": "uint64",
          "name": "subscriptionId",
          "type": "uint64"
        },
        {
          "internalType": "uint32",
          "name": "callbackGasLimit",
          "type": "uint32"
        }
      ],
      "stateMutability": "nonpayable",
      "type": "constructor"
    },
    {
      "inputs": [
        {
          "internalType": "address",
          "name": "have",
          "type": "address"
        },
        {
          "internalType": "address",
          "name": "want",
          "type": "address"
        }
      ],
      "name": "OnlyCoordinatorCanFulfill",
      "type": "error"
    },
    {
      "inputs": [],
      "name": "lottery__NotEnoughETHEntered",
      "type": "error"
    },
    {
      "inputs": [],
      "name": "lottery__TransactionFailed",
      "type": "error"
    },
    {
      "anonymous": false,
      "inputs": [
        {
          "indexed": true,
          "internalType": "address",
          "name": "player",
          "type": "address"
        }
      ],
      "name": "Lottery_Enter",
      "type": "event"
    },
    {
      "anonymous": false,
      "inputs": [
        {
          "indexed": false,
          "internalType": "uint256",
          "name": "requestId",
          "type": "uint256"
        }
      ],
      "name": "RequestedLotteryWinner",
      "type": "event"
    },
    {
      "inputs": [],
      "name": "enterLottery",
      "outputs": [],
      "stateMutability": "payable",
      "type": "function"
    },
    {
      "inputs": [],
      "name": "getEntryFees",
      "outputs": [
        {
          "internalType": "uint256",
          "name": "",
          "type": "uint256"
        }
      ],
      "stateMutability": "view",
      "type": "function"
    },
    {
      "inputs": [
        {
          "internalType": "uint256",
          "name": "index",
          "type": "uint256"
        }
      ],
      "name": "getPlayerAt",
      "outputs": [
        {
          "internalType": "address",
          "name": "",
          "type": "address"
        }
      ],
      "stateMutability": "view",
      "type": "function"
    },
    {
      "inputs": [],
      "name": "getRecentWinner",
      "outputs": [
        {
          "internalType": "address",
          "name": "",
          "type": "address"
        }
      ],
      "stateMutability": "view",
      "type": "function"
    },
    {
      "inputs": [
        {
          "internalType": "uint256",
          "name": "requestId",
          "type": "uint256"
        },
        {
          "internalType": "uint256[]",
          "name": "randomWords",
          "type": "uint256[]"
        }
      ],
      "name": "rawFulfillRandomWords",
      "outputs": [],
      "stateMutability": "nonpayable",
      "type": "function"
    },
    {
      "inputs": [],
      "name": "requestRandomWinner",
      "outputs": [],
      "stateMutability": "nonpayable",
      "type": "function"
    }
  ],
  "bytecode": "0x6101406040523480156200001257600080fd5b5060405162000e6038038062000e60833981810160405281019062000038919062000255565b838073ffffffffffffffffffffffffffffffffffffffff1660808173ffffffffffffffffffffffffffffffffffffffff1681525050508460a081815250508260c081815250508167ffffffffffffffff1660e08167ffffffffffffffff16815250508063ffffffff166101008163ffffffff16815250508373ffffffffffffffffffffffffffffffffffffffff166101208173ffffffffffffffffffffffffffffffffffffffff16815250505050505050620002dd565b600080fd5b6000819050919050565b6200010981620000f4565b81146200011557600080fd5b50565b6000815190506200012981620000fe565b92915050565b600073ffffffffffffffffffffffffffffffffffffffff82169050919050565b60006200015c826200012f565b9050919050565b6200016e816200014f565b81146200017a57600080fd5b50565b6000815190506200018e8162000163565b92915050565b6000819050919050565b620001a98162000194565b8114620001b557600080fd5b50565b600081519050620001c9816200019e565b92915050565b600067ffffffffffffffff82169050919050565b620001ee81620001cf565b8114620001fa57600080fd5b50565b6000815190506200020e81620001e3565b92915050565b600063ffffffff82169050919050565b6200022f8162000214565b81146200023b57600080fd5b50565b6000815190506200024f8162000224565b92915050565b600080600080600060a08688031215620002745762000273620000ef565b5b6000620002848882890162000118565b955050602062000297888289016200017d565b9450506040620002aa88828901620001b8565b9350506060620002bd88828901620001fd565b9250506080620002d0888289016200023e565b9150509295509295909350565b60805160a05160c05160e0516101005161012051610b256200033b6000396000610225015260006102a5015260006102820152600061026101526000818161036701526104b2015260008181610139015261018d0152610b256000f3fe6080604052600436106100555760003560e01c80631fe543e31461005a578063473f1ddc14610083578063522a1f0b146100ae578063c1af5785146100c5578063ceb73f45146100cf578063e262e4021461010c575b600080fd5b34801561006657600080fd5b50610081600480360381019061007c91906107d5565b610137565b005b34801561008f57600080fd5b506100986101f7565b6040516100a59190610872565b60405180910390f35b3480156100ba57600080fd5b506100c3610221565b005b6100cd610365565b005b3480156100db57600080fd5b506100f660048036038101906100f1919061088d565b610467565b6040516101039190610872565b60405180910390f35b34801561011857600080fd5b506101216104ae565b60405161012e91906108c9565b60405180910390f35b7f000000000000000000000000000000000000000000000000000000000000000073ffffffffffffffffffffffffffffffffffffffff163373ffffffffffffffffffffffffffffffffffffffff16146101e957337f00000000000000000000000000000000000000000000000000000000000000006040517f1cf993f40000000000000000000000000000000000000000000000000000000081526004016101e09291906108e4565b60405180910390fd5b6101f382826104d6565b5050565b6000600160009054906101000a900473ffffffffffffffffffffffffffffffffffffffff16905090565b60007f000000000000000000000000000000000000000000000000000000000000000073ffffffffffffffffffffffffffffffffffffffff16635d3b1d307f00000000000000000000000000000000000000000000000000000000000000007f000000000000000000000000000000000000000000000000000000000000000060037f000000000000000000000000000000000000000000000000000000000000000060016040518663ffffffff1660e01b81526004016102e6959493929190610985565b6020604051808303816000875af1158015610305573d6000803e3d6000fd5b505050506040513d601f19601f8201168201806040525081019061032991906109ed565b90507febf56642252004c18a776f30d528e7a0ce8c5db14b6596fb6550f630c8a24c6c8160405161035a91906108c9565b60405180910390a150565b7f00000000000000000000000000000000000000000000000000000000000000003410156103bf576040517fc7c441bf00000000000000000000000000000000000000000000000000000000815260040160405180910390fd5b6000339080600181540180825580915050600190039060005260206000200160009091909190916101000a81548173ffffffffffffffffffffffffffffffffffffffff021916908373ffffffffffffffffffffffffffffffffffffffff1602179055503373ffffffffffffffffffffffffffffffffffffffff167ff1f4bcd3f74994e09674cbaffe79e4dcf31b8892b2f750b1926a36dc6a5cd01c60405160405180910390a2565b600080828154811061047c5761047b610a1a565b5b9060005260206000200160009054906101000a900473ffffffffffffffffffffffffffffffffffffffff169050919050565b60007f0000000000000000000000000000000000000000000000000000000000000000905090565b60008080549050826000815181106104f1576104f0610a1a565b5b60200260200101516105039190610a78565b9050600080828154811061051a57610519610a1a565b5b9060005260206000200160009054906101000a900473ffffffffffffffffffffffffffffffffffffffff16905080600160006101000a81548173ffffffffffffffffffffffffffffffffffffffff021916908373ffffffffffffffffffffffffffffffffffffffff16021790555060008173ffffffffffffffffffffffffffffffffffffffff16476040516105ae90610ada565b60006040518083038185875af1925050503d80600081146105eb576040519150601f19603f3d011682016040523d82523d6000602084013e6105f0565b606091505b505090508061062b576040517fc7c24b4e00000000000000000000000000000000000000000000000000000000815260040160405180910390fd5b5050505050565b6000604051905090565b600080fd5b600080fd5b6000819050919050565b61065981610646565b811461066457600080fd5b50565b60008135905061067681610650565b92915050565b600080fd5b6000601f19601f8301169050919050565b7f4e487b7100000000000000000000000000000000000000000000000000000000600052604160045260246000fd5b6106ca82610681565b810181811067ffffffffffffffff821117156106e9576106e8610692565b5b80604052505050565b60006106fc610632565b905061070882826106c1565b919050565b600067ffffffffffffffff82111561072857610727610692565b5b602082029050602081019050919050565b600080fd5b600061075161074c8461070d565b6106f2565b9050808382526020820190506020840283018581111561077457610773610739565b5b835b8181101561079d57806107898882610667565b845260208401935050602081019050610776565b5050509392505050565b600082601f8301126107bc576107bb61067c565b5b81356107cc84826020860161073e565b91505092915050565b600080604083850312156107ec576107eb61063c565b5b60006107fa85828601610667565b925050602083013567ffffffffffffffff81111561081b5761081a610641565b5b610827858286016107a7565b9150509250929050565b600073ffffffffffffffffffffffffffffffffffffffff82169050919050565b600061085c82610831565b9050919050565b61086c81610851565b82525050565b60006020820190506108876000830184610863565b92915050565b6000602082840312156108a3576108a261063c565b5b60006108b184828501610667565b91505092915050565b6108c381610646565b82525050565b60006020820190506108de60008301846108ba565b92915050565b60006040820190506108f96000830185610863565b6109066020830184610863565b9392505050565b6000819050919050565b6109208161090d565b82525050565b600067ffffffffffffffff82169050919050565b61094381610926565b82525050565b600061ffff82169050919050565b61096081610949565b82525050565b600063ffffffff82169050919050565b61097f81610966565b82525050565b600060a08201905061099a6000830188610917565b6109a7602083018761093a565b6109b46040830186610957565b6109c16060830185610976565b6109ce6080830184610976565b9695505050505050565b6000815190506109e781610650565b92915050565b600060208284031215610a0357610a0261063c565b5b6000610a11848285016109d8565b91505092915050565b7f4e487b7100000000000000000000000000000000000000000000000000000000600052603260045260246000fd5b7f4e487b7100000000000000000000000000000000000000000000000000000000600052601260045260246000fd5b6000610a8382610646565b9150610a8e83610646565b925082610a9e57610a9d610a49565b5b828206905092915050565b600081905092915050565b50565b6000610ac4600083610aa9565b9150610acf82610ab4565b600082019050919050565b6000610ae582610ab7565b915081905091905056fea26469706673582212203f6354c32bce184068d9a8c7a9198374108fe9d2b3010c0f136723d6ac98d7e664736f6c63430008110033",
  "linkReferences": {},
  "deployedLinkReferences": {}
}