{
  "_format": "hh-sol-artifact-1",
  "contractName": "Lottery",
  "sourceName": "contracts/lottery.sol",
  "abi": [
    {
      "inputs": [
        {
          "internalType": "uint256",
          "name": "entranceFees",
          "type": "uint256"
        },
        {
          "internalType": "address",
          "name": "vrfCoordinator",
          "type": "address"
        }
      ],
      "stateMutability": "nonpayable",
      "type": "constructor"
    },
    {
      "inputs": [
        {
          "internalType": "address",
          "name": "have",
          "type": "address"
        },
        {
          "internalType": "address",
          "name": "want",
          "type": "address"
        }
      ],
      "name": "OnlyCoordinatorCanFulfill",
      "type": "error"
    },
    {
      "inputs": [],
      "name": "lottery__NotEnoughETHEntered",
      "type": "error"
    },
    {
      "anonymous": false,
      "inputs": [
        {
          "indexed": true,
          "internalType": "address",
          "name": "player",
          "type": "address"
        }
      ],
      "name": "Lottery_Enter",
      "type": "event"
    },
    {
      "inputs": [],
      "name": "enterLottery",
      "outputs": [],
      "stateMutability": "payable",
      "type": "function"
    },
    {
      "inputs": [],
      "name": "getEntryFees",
      "outputs": [
        {
          "internalType": "uint256",
          "name": "",
          "type": "uint256"
        }
      ],
      "stateMutability": "view",
      "type": "function"
    },
    {
      "inputs": [
        {
          "internalType": "uint256",
          "name": "index",
          "type": "uint256"
        }
      ],
      "name": "getPlayerAt",
      "outputs": [
        {
          "internalType": "address",
          "name": "",
          "type": "address"
        }
      ],
      "stateMutability": "view",
      "type": "function"
    },
    {
      "inputs": [
        {
          "internalType": "uint256",
          "name": "requestId",
          "type": "uint256"
        },
        {
          "internalType": "uint256[]",
          "name": "randomWords",
          "type": "uint256[]"
        }
      ],
      "name": "rawFulfillRandomWords",
      "outputs": [],
      "stateMutability": "nonpayable",
      "type": "function"
    }
  ],
  "bytecode": "0x60c060405234801561001057600080fd5b506040516107d63803806107d683398181016040528101906100329190610110565b808073ffffffffffffffffffffffffffffffffffffffff1660808173ffffffffffffffffffffffffffffffffffffffff1681525050508160a081815250505050610150565b600080fd5b6000819050919050565b61008f8161007c565b811461009a57600080fd5b50565b6000815190506100ac81610086565b92915050565b600073ffffffffffffffffffffffffffffffffffffffff82169050919050565b60006100dd826100b2565b9050919050565b6100ed816100d2565b81146100f857600080fd5b50565b60008151905061010a816100e4565b92915050565b6000806040838503121561012757610126610077565b5b60006101358582860161009d565b9250506020610146858286016100fb565b9150509250929050565b60805160a051610654610182600039600081816101a101526102ec01526000818160e1015261013501526106546000f3fe60806040526004361061003f5760003560e01c80631fe543e314610044578063c1af57851461006d578063ceb73f4514610077578063e262e402146100b4575b600080fd5b34801561005057600080fd5b5061006b600480360381019061006691906104b7565b6100df565b005b61007561019f565b005b34801561008357600080fd5b5061009e60048036038101906100999190610513565b6102a1565b6040516100ab9190610581565b60405180910390f35b3480156100c057600080fd5b506100c96102e8565b6040516100d691906105ab565b60405180910390f35b7f000000000000000000000000000000000000000000000000000000000000000073ffffffffffffffffffffffffffffffffffffffff163373ffffffffffffffffffffffffffffffffffffffff161461019157337f00000000000000000000000000000000000000000000000000000000000000006040517f1cf993f40000000000000000000000000000000000000000000000000000000081526004016101889291906105c6565b60405180910390fd5b61019b8282610310565b5050565b7f00000000000000000000000000000000000000000000000000000000000000003410156101f9576040517fc7c441bf00000000000000000000000000000000000000000000000000000000815260040160405180910390fd5b6000339080600181540180825580915050600190039060005260206000200160009091909190916101000a81548173ffffffffffffffffffffffffffffffffffffffff021916908373ffffffffffffffffffffffffffffffffffffffff1602179055503373ffffffffffffffffffffffffffffffffffffffff167ff1f4bcd3f74994e09674cbaffe79e4dcf31b8892b2f750b1926a36dc6a5cd01c60405160405180910390a2565b60008082815481106102b6576102b56105ef565b5b9060005260206000200160009054906101000a900473ffffffffffffffffffffffffffffffffffffffff169050919050565b60007f0000000000000000000000000000000000000000000000000000000000000000905090565b5050565b6000604051905090565b600080fd5b600080fd5b6000819050919050565b61033b81610328565b811461034657600080fd5b50565b60008135905061035881610332565b92915050565b600080fd5b6000601f19601f8301169050919050565b7f4e487b7100000000000000000000000000000000000000000000000000000000600052604160045260246000fd5b6103ac82610363565b810181811067ffffffffffffffff821117156103cb576103ca610374565b5b80604052505050565b60006103de610314565b90506103ea82826103a3565b919050565b600067ffffffffffffffff82111561040a57610409610374565b5b602082029050602081019050919050565b600080fd5b600061043361042e846103ef565b6103d4565b905080838252602082019050602084028301858111156104565761045561041b565b5b835b8181101561047f578061046b8882610349565b845260208401935050602081019050610458565b5050509392505050565b600082601f83011261049e5761049d61035e565b5b81356104ae848260208601610420565b91505092915050565b600080604083850312156104ce576104cd61031e565b5b60006104dc85828601610349565b925050602083013567ffffffffffffffff8111156104fd576104fc610323565b5b61050985828601610489565b9150509250929050565b6000602082840312156105295761052861031e565b5b600061053784828501610349565b91505092915050565b600073ffffffffffffffffffffffffffffffffffffffff82169050919050565b600061056b82610540565b9050919050565b61057b81610560565b82525050565b60006020820190506105966000830184610572565b92915050565b6105a581610328565b82525050565b60006020820190506105c0600083018461059c565b92915050565b60006040820190506105db6000830185610572565b6105e86020830184610572565b9392505050565b7f4e487b7100000000000000000000000000000000000000000000000000000000600052603260045260246000fdfea264697066735822122056ed8b69b6c7b393d043b3e1dbe95e1031b32c264446429be7e6767a72bed35c64736f6c63430008110033",
  "linkReferences": {},
  "deployedLinkReferences": {}
}