{
  "address": "0xCEfC32401a815c798C924035C62c57EB920a09d2",
  "abi": [
    {
      "inputs": [
        {
          "internalType": "address",
          "name": "vrfCoordinator",
          "type": "address"
        },
        {
          "internalType": "uint64",
          "name": "subscriptionId",
          "type": "uint64"
        },
        {
          "internalType": "bytes32",
          "name": "gasLane",
          "type": "bytes32"
        },
        {
          "internalType": "uint256",
          "name": "interval",
          "type": "uint256"
        },
        {
          "internalType": "uint256",
          "name": "entranceFees",
          "type": "uint256"
        },
        {
          "internalType": "uint32",
          "name": "callbackGasLimit",
          "type": "uint32"
        }
      ],
      "stateMutability": "nonpayable",
      "type": "constructor"
    },
    {
      "inputs": [
        {
          "internalType": "address",
          "name": "have",
          "type": "address"
        },
        {
          "internalType": "address",
          "name": "want",
          "type": "address"
        }
      ],
      "name": "OnlyCoordinatorCanFulfill",
      "type": "error"
    },
    {
      "inputs": [],
      "name": "lottery__LotteryNotOpen",
      "type": "error"
    },
    {
      "inputs": [],
      "name": "lottery__NotEnoughETHEntered",
      "type": "error"
    },
    {
      "inputs": [],
      "name": "lottery__TransactionFailed",
      "type": "error"
    },
    {
      "inputs": [
        {
          "internalType": "uint256",
          "name": "currentBalance",
          "type": "uint256"
        },
        {
          "internalType": "uint256",
          "name": "noOfPlayers",
          "type": "uint256"
        },
        {
          "internalType": "uint256",
          "name": "lotteryState",
          "type": "uint256"
        }
      ],
      "name": "lottery__UpkeepNotNeeded",
      "type": "error"
    },
    {
      "anonymous": false,
      "inputs": [
        {
          "indexed": true,
          "internalType": "address",
          "name": "player",
          "type": "address"
        }
      ],
      "name": "Lottery_Enter",
      "type": "event"
    },
    {
      "anonymous": false,
      "inputs": [
        {
          "indexed": false,
          "internalType": "uint256",
          "name": "requestId",
          "type": "uint256"
        }
      ],
      "name": "RequestedLotteryWinner",
      "type": "event"
    },
    {
      "anonymous": false,
      "inputs": [
        {
          "indexed": true,
          "internalType": "address",
          "name": "player",
          "type": "address"
        }
      ],
      "name": "WinnerPicked",
      "type": "event"
    },
    {
      "inputs": [
        {
          "internalType": "bytes",
          "name": "",
          "type": "bytes"
        }
      ],
      "name": "checkUpkeep",
      "outputs": [
        {
          "internalType": "bool",
          "name": "upkeepNeeded",
          "type": "bool"
        },
        {
          "internalType": "bytes",
          "name": "",
          "type": "bytes"
        }
      ],
      "stateMutability": "view",
      "type": "function"
    },
    {
      "inputs": [],
      "name": "enterLottery",
      "outputs": [],
      "stateMutability": "payable",
      "type": "function"
    },
    {
      "inputs": [],
      "name": "getEntranceFee",
      "outputs": [
        {
          "internalType": "uint256",
          "name": "",
          "type": "uint256"
        }
      ],
      "stateMutability": "view",
      "type": "function"
    },
    {
      "inputs": [],
      "name": "getInterval",
      "outputs": [
        {
          "internalType": "uint256",
          "name": "",
          "type": "uint256"
        }
      ],
      "stateMutability": "view",
      "type": "function"
    },
    {
      "inputs": [],
      "name": "getLastTimeStamp",
      "outputs": [
        {
          "internalType": "uint256",
          "name": "",
          "type": "uint256"
        }
      ],
      "stateMutability": "view",
      "type": "function"
    },
    {
      "inputs": [],
      "name": "getLotteryState",
      "outputs": [
        {
          "internalType": "enum Lottery.LotteryState",
          "name": "",
          "type": "uint8"
        }
      ],
      "stateMutability": "view",
      "type": "function"
    },
    {
      "inputs": [],
      "name": "getNoOfPlayers",
      "outputs": [
        {
          "internalType": "uint256",
          "name": "",
          "type": "uint256"
        }
      ],
      "stateMutability": "view",
      "type": "function"
    },
    {
      "inputs": [],
      "name": "getNumWords",
      "outputs": [
        {
          "internalType": "uint256",
          "name": "",
          "type": "uint256"
        }
      ],
      "stateMutability": "pure",
      "type": "function"
    },
    {
      "inputs": [
        {
          "internalType": "uint256",
          "name": "index",
          "type": "uint256"
        }
      ],
      "name": "getPlayerAt",
      "outputs": [
        {
          "internalType": "address",
          "name": "",
          "type": "address"
        }
      ],
      "stateMutability": "view",
      "type": "function"
    },
    {
      "inputs": [],
      "name": "getRecentWinner",
      "outputs": [
        {
          "internalType": "address",
          "name": "",
          "type": "address"
        }
      ],
      "stateMutability": "view",
      "type": "function"
    },
    {
      "inputs": [],
      "name": "getRequestConfirmations",
      "outputs": [
        {
          "internalType": "uint256",
          "name": "",
          "type": "uint256"
        }
      ],
      "stateMutability": "pure",
      "type": "function"
    },
    {
      "inputs": [
        {
          "internalType": "bytes",
          "name": "",
          "type": "bytes"
        }
      ],
      "name": "performUpkeep",
      "outputs": [],
      "stateMutability": "nonpayable",
      "type": "function"
    },
    {
      "inputs": [
        {
          "internalType": "uint256",
          "name": "requestId",
          "type": "uint256"
        },
        {
          "internalType": "uint256[]",
          "name": "randomWords",
          "type": "uint256[]"
        }
      ],
      "name": "rawFulfillRandomWords",
      "outputs": [],
      "stateMutability": "nonpayable",
      "type": "function"
    }
  ],
  "transactionHash": "0x0b7311f9e0420dbaae64f23de0d765d0ce663e63855b71d7b99b2eefc5e45b28",
  "args": [
    "0x2Ca8E0C643bDe4C2E08ab1fA0da3401AdAD7734D",
    "10137",
    "0x79d3d8832d904592c0bf9818b621522c988bb8b0c05cdc3b15aea1b6e8db0c15",
    "30",
    "10000000000000000",
    "500000"
  ],
  "numDeployments": 2,
  "solcInputHash": "ae8658fc9c86f621471454410b3a0ef7",
  "bytecode": "0x6101606040523480156200001257600080fd5b506040516200184738038062001847833981810160405281019062000038919062000294565b858073ffffffffffffffffffffffffffffffffffffffff1660808173ffffffffffffffffffffffffffffffffffffffff1681525050508160a081815250508360c081815250508467ffffffffffffffff1660e08167ffffffffffffffff16815250508063ffffffff166101008163ffffffff16815250508573ffffffffffffffffffffffffffffffffffffffff166101208173ffffffffffffffffffffffffffffffffffffffff16815250506000600160006101000a81548160ff021916908360018111156200010d576200010c62000330565b5b0217905550826101408181525050426002819055505050505050506200035f565b600080fd5b600073ffffffffffffffffffffffffffffffffffffffff82169050919050565b6000620001608262000133565b9050919050565b620001728162000153565b81146200017e57600080fd5b50565b600081519050620001928162000167565b92915050565b600067ffffffffffffffff82169050919050565b620001b78162000198565b8114620001c357600080fd5b50565b600081519050620001d781620001ac565b92915050565b6000819050919050565b620001f281620001dd565b8114620001fe57600080fd5b50565b6000815190506200021281620001e7565b92915050565b6000819050919050565b6200022d8162000218565b81146200023957600080fd5b50565b6000815190506200024d8162000222565b92915050565b600063ffffffff82169050919050565b6200026e8162000253565b81146200027a57600080fd5b50565b6000815190506200028e8162000263565b92915050565b60008060008060008060c08789031215620002b457620002b36200012e565b5b6000620002c489828a0162000181565b9650506020620002d789828a01620001c6565b9550506040620002ea89828a0162000201565b9450506060620002fd89828a016200023c565b93505060806200031089828a016200023c565b92505060a06200032389828a016200027d565b9150509295509295509295565b7f4e487b7100000000000000000000000000000000000000000000000000000000600052602160045260246000fd5b60805160a05160c05160e051610100516101205161014051611478620003cf60003960008181610690015261072d01526000610435015260006104b501526000610492015260006104710152600081816102fa0152610753015260008181610320015261037401526114786000f3fe6080604052600436106100c25760003560e01c80635f1b0fd81161007f57806391ad27b41161005957806391ad27b414610259578063c1af578514610284578063c1c244e81461028e578063ceb73f45146102b9576100c2565b80635f1b0fd8146101c55780636b68c03c146101f05780636e04ff0d1461021b576100c2565b806309bc33a7146100c75780631fe543e3146100f2578063319b97c41461011b5780634585e33b14610146578063473f1ddc1461016f57806353a2c19a1461019a575b600080fd5b3480156100d357600080fd5b506100dc6102f6565b6040516100e99190610c02565b60405180910390f35b3480156100fe57600080fd5b5061011960048036038101906101149190610db6565b61031e565b005b34801561012757600080fd5b506101306103de565b60405161013d9190610c02565b60405180910390f35b34801561015257600080fd5b5061016d60048036038101906101689190610e6d565b6103ea565b005b34801561017b57600080fd5b506101846105e4565b6040516101919190610efb565b60405180910390f35b3480156101a657600080fd5b506101af61060e565b6040516101bc9190610c02565b60405180910390f35b3480156101d157600080fd5b506101da61061d565b6040516101e79190610c02565b60405180910390f35b3480156101fc57600080fd5b5061020561062a565b6040516102129190610f8d565b60405180910390f35b34801561022757600080fd5b50610242600480360381019061023d919061105d565b610641565b604051610250929190611140565b60405180910390f35b34801561026557600080fd5b5061026e610729565b60405161027b9190610c02565b60405180910390f35b61028c610751565b005b34801561029a57600080fd5b506102a36108c0565b6040516102b09190610c02565b60405180910390f35b3480156102c557600080fd5b506102e060048036038101906102db9190611170565b6108ca565b6040516102ed9190610efb565b60405180910390f35b60007f0000000000000000000000000000000000000000000000000000000000000000905090565b7f000000000000000000000000000000000000000000000000000000000000000073ffffffffffffffffffffffffffffffffffffffff163373ffffffffffffffffffffffffffffffffffffffff16146103d057337f00000000000000000000000000000000000000000000000000000000000000006040517f1cf993f40000000000000000000000000000000000000000000000000000000081526004016103c792919061119d565b60405180910390fd5b6103da8282610911565b5050565b60008080549050905090565b600061040460405180602001604052806000815250610641565b50905060018060006101000a81548160ff0219169083600181111561042c5761042b610f16565b5b021790555060007f000000000000000000000000000000000000000000000000000000000000000073ffffffffffffffffffffffffffffffffffffffff16635d3b1d307f00000000000000000000000000000000000000000000000000000000000000007f000000000000000000000000000000000000000000000000000000000000000060037f000000000000000000000000000000000000000000000000000000000000000060016040518663ffffffff1660e01b81526004016104f695949392919061123e565b6020604051808303816000875af1158015610515573d6000803e3d6000fd5b505050506040513d601f19601f8201168201806040525081019061053991906112a6565b9050816105a75747600080549050600160009054906101000a900460ff16600181111561056957610568610f16565b5b6040517f7d1fd57900000000000000000000000000000000000000000000000000000000815260040161059e939291906112d3565b60405180910390fd5b7febf56642252004c18a776f30d528e7a0ce8c5db14b6596fb6550f630c8a24c6c816040516105d69190610c02565b60405180910390a150505050565b6000600360009054906101000a900473ffffffffffffffffffffffffffffffffffffffff16905090565b6000600163ffffffff16905090565b6000600361ffff16905090565b6000600160009054906101000a900460ff16905090565b600060606000600160009054906101000a900460ff16600181111561066957610668610f16565b5b6000600181111561067d5761067c610f16565b5b14905060008060008054905011905060007f0000000000000000000000000000000000000000000000000000000000000000600254426106bd9190611339565b119050600080471190508380156106d15750815b80156106da5750805b80156106e35750825b9550856040518060400160405280600381526020017f30783000000000000000000000000000000000000000000000000000000000008152509550955050505050915091565b60007f0000000000000000000000000000000000000000000000000000000000000000905090565b7f00000000000000000000000000000000000000000000000000000000000000003410156107ab576040517fc7c441bf00000000000000000000000000000000000000000000000000000000815260040160405180910390fd5b600060018111156107bf576107be610f16565b5b600160009054906101000a900460ff1660018111156107e1576107e0610f16565b5b14610818576040517f5451515800000000000000000000000000000000000000000000000000000000815260040160405180910390fd5b6000339080600181540180825580915050600190039060005260206000200160009091909190916101000a81548173ffffffffffffffffffffffffffffffffffffffff021916908373ffffffffffffffffffffffffffffffffffffffff1602179055503373ffffffffffffffffffffffffffffffffffffffff167ff1f4bcd3f74994e09674cbaffe79e4dcf31b8892b2f750b1926a36dc6a5cd01c60405160405180910390a2565b6000600254905090565b60008082815481106108df576108de61136d565b5b9060005260206000200160009054906101000a900473ffffffffffffffffffffffffffffffffffffffff169050919050565b600080805490508260008151811061092c5761092b61136d565b5b602002602001015161093e91906113cb565b905060008082815481106109555761095461136d565b5b9060005260206000200160009054906101000a900473ffffffffffffffffffffffffffffffffffffffff16905080600360006101000a81548173ffffffffffffffffffffffffffffffffffffffff021916908373ffffffffffffffffffffffffffffffffffffffff1602179055506000600160006101000a81548160ff021916908360018111156109e9576109e8610f16565b5b0217905550600067ffffffffffffffff811115610a0957610a08610c73565b5b604051908082528060200260200182016040528015610a375781602001602082028036833780820191505090505b5060009080519060200190610a4d929190610b42565b504260028190555060008173ffffffffffffffffffffffffffffffffffffffff1647604051610a7b9061142d565b60006040518083038185875af1925050503d8060008114610ab8576040519150601f19603f3d011682016040523d82523d6000602084013e610abd565b606091505b5050905080610af8576040517fc7c24b4e00000000000000000000000000000000000000000000000000000000815260040160405180910390fd5b8173ffffffffffffffffffffffffffffffffffffffff167f5b690ec4a06fe979403046eaeea5b3ce38524683c3001f662c8b5a829632f7df60405160405180910390a25050505050565b828054828255906000526020600020908101928215610bbb579160200282015b82811115610bba5782518260006101000a81548173ffffffffffffffffffffffffffffffffffffffff021916908373ffffffffffffffffffffffffffffffffffffffff16021790555091602001919060010190610b62565b5b509050610bc89190610bcc565b5090565b5b80821115610be5576000816000905550600101610bcd565b5090565b6000819050919050565b610bfc81610be9565b82525050565b6000602082019050610c176000830184610bf3565b92915050565b6000604051905090565b600080fd5b600080fd5b610c3a81610be9565b8114610c4557600080fd5b50565b600081359050610c5781610c31565b92915050565b600080fd5b6000601f19601f8301169050919050565b7f4e487b7100000000000000000000000000000000000000000000000000000000600052604160045260246000fd5b610cab82610c62565b810181811067ffffffffffffffff82111715610cca57610cc9610c73565b5b80604052505050565b6000610cdd610c1d565b9050610ce98282610ca2565b919050565b600067ffffffffffffffff821115610d0957610d08610c73565b5b602082029050602081019050919050565b600080fd5b6000610d32610d2d84610cee565b610cd3565b90508083825260208201905060208402830185811115610d5557610d54610d1a565b5b835b81811015610d7e5780610d6a8882610c48565b845260208401935050602081019050610d57565b5050509392505050565b600082601f830112610d9d57610d9c610c5d565b5b8135610dad848260208601610d1f565b91505092915050565b60008060408385031215610dcd57610dcc610c27565b5b6000610ddb85828601610c48565b925050602083013567ffffffffffffffff811115610dfc57610dfb610c2c565b5b610e0885828601610d88565b9150509250929050565b600080fd5b60008083601f840112610e2d57610e2c610c5d565b5b8235905067ffffffffffffffff811115610e4a57610e49610e12565b5b602083019150836001820283011115610e6657610e65610d1a565b5b9250929050565b60008060208385031215610e8457610e83610c27565b5b600083013567ffffffffffffffff811115610ea257610ea1610c2c565b5b610eae85828601610e17565b92509250509250929050565b600073ffffffffffffffffffffffffffffffffffffffff82169050919050565b6000610ee582610eba565b9050919050565b610ef581610eda565b82525050565b6000602082019050610f106000830184610eec565b92915050565b7f4e487b7100000000000000000000000000000000000000000000000000000000600052602160045260246000fd5b60028110610f5657610f55610f16565b5b50565b6000819050610f6782610f45565b919050565b6000610f7782610f59565b9050919050565b610f8781610f6c565b82525050565b6000602082019050610fa26000830184610f7e565b92915050565b600080fd5b600067ffffffffffffffff821115610fc857610fc7610c73565b5b610fd182610c62565b9050602081019050919050565b82818337600083830152505050565b6000611000610ffb84610fad565b610cd3565b90508281526020810184848401111561101c5761101b610fa8565b5b611027848285610fde565b509392505050565b600082601f83011261104457611043610c5d565b5b8135611054848260208601610fed565b91505092915050565b60006020828403121561107357611072610c27565b5b600082013567ffffffffffffffff81111561109157611090610c2c565b5b61109d8482850161102f565b91505092915050565b60008115159050919050565b6110bb816110a6565b82525050565b600081519050919050565b600082825260208201905092915050565b60005b838110156110fb5780820151818401526020810190506110e0565b60008484015250505050565b6000611112826110c1565b61111c81856110cc565b935061112c8185602086016110dd565b61113581610c62565b840191505092915050565b600060408201905061115560008301856110b2565b81810360208301526111678184611107565b90509392505050565b60006020828403121561118657611185610c27565b5b600061119484828501610c48565b91505092915050565b60006040820190506111b26000830185610eec565b6111bf6020830184610eec565b9392505050565b6000819050919050565b6111d9816111c6565b82525050565b600067ffffffffffffffff82169050919050565b6111fc816111df565b82525050565b600061ffff82169050919050565b61121981611202565b82525050565b600063ffffffff82169050919050565b6112388161121f565b82525050565b600060a08201905061125360008301886111d0565b61126060208301876111f3565b61126d6040830186611210565b61127a606083018561122f565b611287608083018461122f565b9695505050505050565b6000815190506112a081610c31565b92915050565b6000602082840312156112bc576112bb610c27565b5b60006112ca84828501611291565b91505092915050565b60006060820190506112e86000830186610bf3565b6112f56020830185610bf3565b6113026040830184610bf3565b949350505050565b7f4e487b7100000000000000000000000000000000000000000000000000000000600052601160045260246000fd5b600061134482610be9565b915061134f83610be9565b92508282039050818111156113675761136661130a565b5b92915050565b7f4e487b7100000000000000000000000000000000000000000000000000000000600052603260045260246000fd5b7f4e487b7100000000000000000000000000000000000000000000000000000000600052601260045260246000fd5b60006113d682610be9565b91506113e183610be9565b9250826113f1576113f061139c565b5b828206905092915050565b600081905092915050565b50565b60006114176000836113fc565b915061142282611407565b600082019050919050565b60006114388261140a565b915081905091905056fea264697066735822122085984508b702857331d942589f37914af1dda2f04e3e9cf273bc95bd4d50197664736f6c63430008110033",
  "devdoc": {
    "kind": "dev",
    "methods": {},
    "version": 1
  },
  "userdoc": {
    "kind": "user",
    "methods": {},
    "version": 1
  },
  "storageLayout": {
    "storage": [
      {
        "astId": 1206,
        "contract": "contracts/lottery.sol:Lottery",
        "label": "s_players",
        "offset": 0,
        "slot": "0",
        "type": "t_array(t_address_payable)dyn_storage"
      },
      {
        "astId": 1209,
        "contract": "contracts/lottery.sol:Lottery",
        "label": "s_lotteryState",
        "offset": 0,
        "slot": "1",
        "type": "t_enum(LotteryState)1189"
      },
      {
        "astId": 1214,
        "contract": "contracts/lottery.sol:Lottery",
        "label": "s_lastTimeStamp",
        "offset": 0,
        "slot": "2",
        "type": "t_uint256"
      },
      {
        "astId": 1218,
        "contract": "contracts/lottery.sol:Lottery",
        "label": "s_recentWinner",
        "offset": 0,
        "slot": "3",
        "type": "t_address"
      }
    ],
    "types": {
      "t_address": {
        "encoding": "inplace",
        "label": "address",
        "numberOfBytes": "20"
      },
      "t_address_payable": {
        "encoding": "inplace",
        "label": "address payable",
        "numberOfBytes": "20"
      },
      "t_array(t_address_payable)dyn_storage": {
        "base": "t_address_payable",
        "encoding": "dynamic_array",
        "label": "address payable[]",
        "numberOfBytes": "32"
      },
      "t_enum(LotteryState)1189": {
        "encoding": "inplace",
        "label": "enum Lottery.LotteryState",
        "numberOfBytes": "1"
      },
      "t_uint256": {
        "encoding": "inplace",
        "label": "uint256",
        "numberOfBytes": "32"
      }
    }
  }
}