{
  "address": "0x927Ac5bA221777Fd54995950ee4B3e8e81D6eA04",
  "abi": [
    {
      "inputs": [
        {
          "internalType": "address",
          "name": "vrfCoordinator",
          "type": "address"
        },
        {
          "internalType": "uint64",
          "name": "subscriptionId",
          "type": "uint64"
        },
        {
          "internalType": "bytes32",
          "name": "gasLane",
          "type": "bytes32"
        },
        {
          "internalType": "uint256",
          "name": "interval",
          "type": "uint256"
        },
        {
          "internalType": "uint256",
          "name": "entranceFees",
          "type": "uint256"
        },
        {
          "internalType": "uint32",
          "name": "callbackGasLimit",
          "type": "uint32"
        }
      ],
      "stateMutability": "nonpayable",
      "type": "constructor"
    },
    {
      "inputs": [
        {
          "internalType": "address",
          "name": "have",
          "type": "address"
        },
        {
          "internalType": "address",
          "name": "want",
          "type": "address"
        }
      ],
      "name": "OnlyCoordinatorCanFulfill",
      "type": "error"
    },
    {
      "inputs": [],
      "name": "lottery__LotteryNotOpen",
      "type": "error"
    },
    {
      "inputs": [],
      "name": "lottery__NotEnoughETHEntered",
      "type": "error"
    },
    {
      "inputs": [],
      "name": "lottery__TransactionFailed",
      "type": "error"
    },
    {
      "inputs": [
        {
          "internalType": "uint256",
          "name": "currentBalance",
          "type": "uint256"
        },
        {
          "internalType": "uint256",
          "name": "noOfPlayers",
          "type": "uint256"
        },
        {
          "internalType": "uint256",
          "name": "lotteryState",
          "type": "uint256"
        }
      ],
      "name": "lottery__UpkeepNotNeeded",
      "type": "error"
    },
    {
      "anonymous": false,
      "inputs": [
        {
          "indexed": true,
          "internalType": "address",
          "name": "player",
          "type": "address"
        }
      ],
      "name": "Lottery_Enter",
      "type": "event"
    },
    {
      "anonymous": false,
      "inputs": [
        {
          "indexed": false,
          "internalType": "uint256",
          "name": "requestId",
          "type": "uint256"
        }
      ],
      "name": "RequestedLotteryWinner",
      "type": "event"
    },
    {
      "inputs": [
        {
          "internalType": "bytes",
          "name": "",
          "type": "bytes"
        }
      ],
      "name": "checkUpkeep",
      "outputs": [
        {
          "internalType": "bool",
          "name": "upkeepNeeded",
          "type": "bool"
        },
        {
          "internalType": "bytes",
          "name": "",
          "type": "bytes"
        }
      ],
      "stateMutability": "view",
      "type": "function"
    },
    {
      "inputs": [],
      "name": "enterLottery",
      "outputs": [],
      "stateMutability": "payable",
      "type": "function"
    },
    {
      "inputs": [],
      "name": "getEntryFees",
      "outputs": [
        {
          "internalType": "uint256",
          "name": "",
          "type": "uint256"
        }
      ],
      "stateMutability": "view",
      "type": "function"
    },
    {
      "inputs": [],
      "name": "getLatestTimeStamp",
      "outputs": [
        {
          "internalType": "uint256",
          "name": "",
          "type": "uint256"
        }
      ],
      "stateMutability": "view",
      "type": "function"
    },
    {
      "inputs": [],
      "name": "getLotteryState",
      "outputs": [
        {
          "internalType": "enum Lottery.LotteryState",
          "name": "",
          "type": "uint8"
        }
      ],
      "stateMutability": "view",
      "type": "function"
    },
    {
      "inputs": [],
      "name": "getNoOfPlayers",
      "outputs": [
        {
          "internalType": "uint256",
          "name": "",
          "type": "uint256"
        }
      ],
      "stateMutability": "view",
      "type": "function"
    },
    {
      "inputs": [],
      "name": "getNumWords",
      "outputs": [
        {
          "internalType": "uint256",
          "name": "",
          "type": "uint256"
        }
      ],
      "stateMutability": "pure",
      "type": "function"
    },
    {
      "inputs": [
        {
          "internalType": "uint256",
          "name": "index",
          "type": "uint256"
        }
      ],
      "name": "getPlayerAt",
      "outputs": [
        {
          "internalType": "address",
          "name": "",
          "type": "address"
        }
      ],
      "stateMutability": "view",
      "type": "function"
    },
    {
      "inputs": [],
      "name": "getRecentWinner",
      "outputs": [
        {
          "internalType": "address",
          "name": "",
          "type": "address"
        }
      ],
      "stateMutability": "view",
      "type": "function"
    },
    {
      "inputs": [],
      "name": "getRequestConfirmations",
      "outputs": [
        {
          "internalType": "uint256",
          "name": "",
          "type": "uint256"
        }
      ],
      "stateMutability": "pure",
      "type": "function"
    },
    {
      "inputs": [
        {
          "internalType": "bytes",
          "name": "",
          "type": "bytes"
        }
      ],
      "name": "performUpkeep",
      "outputs": [],
      "stateMutability": "nonpayable",
      "type": "function"
    },
    {
      "inputs": [
        {
          "internalType": "uint256",
          "name": "requestId",
          "type": "uint256"
        },
        {
          "internalType": "uint256[]",
          "name": "randomWords",
          "type": "uint256[]"
        }
      ],
      "name": "rawFulfillRandomWords",
      "outputs": [],
      "stateMutability": "nonpayable",
      "type": "function"
    }
  ],
  "transactionHash": "0x32faf952c260ae9a9ce37444009e7766633761d3d4e822ca238a2e1d687895e4",
  "args": [
    "0x2Ca8E0C643bDe4C2E08ab1fA0da3401AdAD7734D",
    "0",
    "0x79d3d8832d904592c0bf9818b621522c988bb8b0c05cdc3b15aea1b6e8db0c15",
    "30",
    "10000000000000000",
    "500000"
  ],
  "numDeployments": 1,
  "solcInputHash": "95d48f3326676d6208221b4506416ea5",
  "bytecode": "0x6101606040523480156200001257600080fd5b50604051620017c0380380620017c0833981810160405281019062000038919062000294565b858073ffffffffffffffffffffffffffffffffffffffff1660808173ffffffffffffffffffffffffffffffffffffffff1681525050508160a081815250508360c081815250508467ffffffffffffffff1660e08167ffffffffffffffff16815250508063ffffffff166101008163ffffffff16815250508573ffffffffffffffffffffffffffffffffffffffff166101208173ffffffffffffffffffffffffffffffffffffffff16815250506000600160006101000a81548160ff021916908360018111156200010d576200010c62000330565b5b0217905550826101408181525050426002819055505050505050506200035f565b600080fd5b600073ffffffffffffffffffffffffffffffffffffffff82169050919050565b6000620001608262000133565b9050919050565b620001728162000153565b81146200017e57600080fd5b50565b600081519050620001928162000167565b92915050565b600067ffffffffffffffff82169050919050565b620001b78162000198565b8114620001c357600080fd5b50565b600081519050620001d781620001ac565b92915050565b6000819050919050565b620001f281620001dd565b8114620001fe57600080fd5b50565b6000815190506200021281620001e7565b92915050565b6000819050919050565b6200022d8162000218565b81146200023957600080fd5b50565b6000815190506200024d8162000222565b92915050565b600063ffffffff82169050919050565b6200026e8162000253565b81146200027a57600080fd5b50565b6000815190506200028e8162000263565b92915050565b60008060008060008060c08789031215620002b457620002b36200012e565b5b6000620002c489828a0162000181565b9650506020620002d789828a01620001c6565b9550506040620002ea89828a0162000201565b9450506060620002fd89828a016200023c565b93505060806200031089828a016200023c565b92505060a06200032389828a016200027d565b9150509295509295509295565b7f4e487b7100000000000000000000000000000000000000000000000000000000600052602160045260246000fd5b60805160a05160c05160e0516101005161012051610140516113f8620003c8600039600061062c015260006103d1015260006104510152600061042e0152600061040d0152600081816106f801526108b00152600081816102b2015261030601526113f86000f3fe6080604052600436106100a75760003560e01c80635f1b0fd8116100645780635f1b0fd8146101aa5780636b68c03c146101d55780636e04ff0d14610200578063c1af57851461023e578063ceb73f4514610248578063e262e40214610285576100a7565b80631fe543e3146100ac578063319b97c4146100d5578063320229eb146101005780634585e33b1461012b578063473f1ddc1461015457806353a2c19a1461017f575b600080fd5b3480156100b857600080fd5b506100d360048036038101906100ce9190610d0c565b6102b0565b005b3480156100e157600080fd5b506100ea610370565b6040516100f79190610d77565b60405180910390f35b34801561010c57600080fd5b5061011561037c565b6040516101229190610d77565b60405180910390f35b34801561013757600080fd5b50610152600480360381019061014d9190610ded565b610386565b005b34801561016057600080fd5b50610169610580565b6040516101769190610e7b565b60405180910390f35b34801561018b57600080fd5b506101946105aa565b6040516101a19190610d77565b60405180910390f35b3480156101b657600080fd5b506101bf6105b9565b6040516101cc9190610d77565b60405180910390f35b3480156101e157600080fd5b506101ea6105c6565b6040516101f79190610f0d565b60405180910390f35b34801561020c57600080fd5b5061022760048036038101906102229190610fdd565b6105dd565b6040516102359291906110c0565b60405180910390f35b6102466106f6565b005b34801561025457600080fd5b5061026f600480360381019061026a91906110f0565b610865565b60405161027c9190610e7b565b60405180910390f35b34801561029157600080fd5b5061029a6108ac565b6040516102a79190610d77565b60405180910390f35b7f000000000000000000000000000000000000000000000000000000000000000073ffffffffffffffffffffffffffffffffffffffff163373ffffffffffffffffffffffffffffffffffffffff161461036257337f00000000000000000000000000000000000000000000000000000000000000006040517f1cf993f400000000000000000000000000000000000000000000000000000000815260040161035992919061111d565b60405180910390fd5b61036c82826108d4565b5050565b60008080549050905090565b6000600254905090565b60006103a0604051806020016040528060008152506105dd565b50905060018060006101000a81548160ff021916908360018111156103c8576103c7610e96565b5b021790555060007f000000000000000000000000000000000000000000000000000000000000000073ffffffffffffffffffffffffffffffffffffffff16635d3b1d307f00000000000000000000000000000000000000000000000000000000000000007f000000000000000000000000000000000000000000000000000000000000000060037f000000000000000000000000000000000000000000000000000000000000000060016040518663ffffffff1660e01b81526004016104929594939291906111be565b6020604051808303816000875af11580156104b1573d6000803e3d6000fd5b505050506040513d601f19601f820116820180604052508101906104d59190611226565b9050816105435747600080549050600160009054906101000a900460ff16600181111561050557610504610e96565b5b6040517f7d1fd57900000000000000000000000000000000000000000000000000000000815260040161053a93929190611253565b60405180910390fd5b7febf56642252004c18a776f30d528e7a0ce8c5db14b6596fb6550f630c8a24c6c816040516105729190610d77565b60405180910390a150505050565b6000600360009054906101000a900473ffffffffffffffffffffffffffffffffffffffff16905090565b6000600163ffffffff16905090565b6000600361ffff16905090565b6000600160009054906101000a900460ff16905090565b600060606000600160009054906101000a900460ff16600181111561060557610604610e96565b5b6000600181111561061957610618610e96565b5b14905060008060008054905011905060007f00000000000000000000000000000000000000000000000000000000000000006002544261065991906112b9565b1190506000804711905083801561066d5750815b80156106765750805b801561067f5750825b9550856106ed5747600080549050600160009054906101000a900460ff1660018111156106af576106ae610e96565b5b6040517f7d1fd5790000000000000000000000000000000000000000000000000000000081526004016106e493929190611253565b60405180910390fd5b50505050915091565b7f0000000000000000000000000000000000000000000000000000000000000000341015610750576040517fc7c441bf00000000000000000000000000000000000000000000000000000000815260040160405180910390fd5b6000600181111561076457610763610e96565b5b600160009054906101000a900460ff16600181111561078657610785610e96565b5b146107bd576040517f5451515800000000000000000000000000000000000000000000000000000000815260040160405180910390fd5b6000339080600181540180825580915050600190039060005260206000200160009091909190916101000a81548173ffffffffffffffffffffffffffffffffffffffff021916908373ffffffffffffffffffffffffffffffffffffffff1602179055503373ffffffffffffffffffffffffffffffffffffffff167ff1f4bcd3f74994e09674cbaffe79e4dcf31b8892b2f750b1926a36dc6a5cd01c60405160405180910390a2565b600080828154811061087a576108796112ed565b5b9060005260206000200160009054906101000a900473ffffffffffffffffffffffffffffffffffffffff169050919050565b60007f0000000000000000000000000000000000000000000000000000000000000000905090565b60008080549050826000815181106108ef576108ee6112ed565b5b6020026020010151610901919061134b565b90506000808281548110610918576109176112ed565b5b9060005260206000200160009054906101000a900473ffffffffffffffffffffffffffffffffffffffff16905080600360006101000a81548173ffffffffffffffffffffffffffffffffffffffff021916908373ffffffffffffffffffffffffffffffffffffffff1602179055506000600160006101000a81548160ff021916908360018111156109ac576109ab610e96565b5b0217905550600067ffffffffffffffff8111156109cc576109cb610bc9565b5b6040519080825280602002602001820160405280156109fa5781602001602082028036833780820191505090505b5060009080519060200190610a10929190610ac2565b504260028190555060008173ffffffffffffffffffffffffffffffffffffffff1647604051610a3e906113ad565b60006040518083038185875af1925050503d8060008114610a7b576040519150601f19603f3d011682016040523d82523d6000602084013e610a80565b606091505b5050905080610abb576040517fc7c24b4e00000000000000000000000000000000000000000000000000000000815260040160405180910390fd5b5050505050565b828054828255906000526020600020908101928215610b3b579160200282015b82811115610b3a5782518260006101000a81548173ffffffffffffffffffffffffffffffffffffffff021916908373ffffffffffffffffffffffffffffffffffffffff16021790555091602001919060010190610ae2565b5b509050610b489190610b4c565b5090565b5b80821115610b65576000816000905550600101610b4d565b5090565b6000604051905090565b600080fd5b600080fd5b6000819050919050565b610b9081610b7d565b8114610b9b57600080fd5b50565b600081359050610bad81610b87565b92915050565b600080fd5b6000601f19601f8301169050919050565b7f4e487b7100000000000000000000000000000000000000000000000000000000600052604160045260246000fd5b610c0182610bb8565b810181811067ffffffffffffffff82111715610c2057610c1f610bc9565b5b80604052505050565b6000610c33610b69565b9050610c3f8282610bf8565b919050565b600067ffffffffffffffff821115610c5f57610c5e610bc9565b5b602082029050602081019050919050565b600080fd5b6000610c88610c8384610c44565b610c29565b90508083825260208201905060208402830185811115610cab57610caa610c70565b5b835b81811015610cd45780610cc08882610b9e565b845260208401935050602081019050610cad565b5050509392505050565b600082601f830112610cf357610cf2610bb3565b5b8135610d03848260208601610c75565b91505092915050565b60008060408385031215610d2357610d22610b73565b5b6000610d3185828601610b9e565b925050602083013567ffffffffffffffff811115610d5257610d51610b78565b5b610d5e85828601610cde565b9150509250929050565b610d7181610b7d565b82525050565b6000602082019050610d8c6000830184610d68565b92915050565b600080fd5b60008083601f840112610dad57610dac610bb3565b5b8235905067ffffffffffffffff811115610dca57610dc9610d92565b5b602083019150836001820283011115610de657610de5610c70565b5b9250929050565b60008060208385031215610e0457610e03610b73565b5b600083013567ffffffffffffffff811115610e2257610e21610b78565b5b610e2e85828601610d97565b92509250509250929050565b600073ffffffffffffffffffffffffffffffffffffffff82169050919050565b6000610e6582610e3a565b9050919050565b610e7581610e5a565b82525050565b6000602082019050610e906000830184610e6c565b92915050565b7f4e487b7100000000000000000000000000000000000000000000000000000000600052602160045260246000fd5b60028110610ed657610ed5610e96565b5b50565b6000819050610ee782610ec5565b919050565b6000610ef782610ed9565b9050919050565b610f0781610eec565b82525050565b6000602082019050610f226000830184610efe565b92915050565b600080fd5b600067ffffffffffffffff821115610f4857610f47610bc9565b5b610f5182610bb8565b9050602081019050919050565b82818337600083830152505050565b6000610f80610f7b84610f2d565b610c29565b905082815260208101848484011115610f9c57610f9b610f28565b5b610fa7848285610f5e565b509392505050565b600082601f830112610fc457610fc3610bb3565b5b8135610fd4848260208601610f6d565b91505092915050565b600060208284031215610ff357610ff2610b73565b5b600082013567ffffffffffffffff81111561101157611010610b78565b5b61101d84828501610faf565b91505092915050565b60008115159050919050565b61103b81611026565b82525050565b600081519050919050565b600082825260208201905092915050565b60005b8381101561107b578082015181840152602081019050611060565b60008484015250505050565b600061109282611041565b61109c818561104c565b93506110ac81856020860161105d565b6110b581610bb8565b840191505092915050565b60006040820190506110d56000830185611032565b81810360208301526110e78184611087565b90509392505050565b60006020828403121561110657611105610b73565b5b600061111484828501610b9e565b91505092915050565b60006040820190506111326000830185610e6c565b61113f6020830184610e6c565b9392505050565b6000819050919050565b61115981611146565b82525050565b600067ffffffffffffffff82169050919050565b61117c8161115f565b82525050565b600061ffff82169050919050565b61119981611182565b82525050565b600063ffffffff82169050919050565b6111b88161119f565b82525050565b600060a0820190506111d36000830188611150565b6111e06020830187611173565b6111ed6040830186611190565b6111fa60608301856111af565b61120760808301846111af565b9695505050505050565b60008151905061122081610b87565b92915050565b60006020828403121561123c5761123b610b73565b5b600061124a84828501611211565b91505092915050565b60006060820190506112686000830186610d68565b6112756020830185610d68565b6112826040830184610d68565b949350505050565b7f4e487b7100000000000000000000000000000000000000000000000000000000600052601160045260246000fd5b60006112c482610b7d565b91506112cf83610b7d565b92508282039050818111156112e7576112e661128a565b5b92915050565b7f4e487b7100000000000000000000000000000000000000000000000000000000600052603260045260246000fd5b7f4e487b7100000000000000000000000000000000000000000000000000000000600052601260045260246000fd5b600061135682610b7d565b915061136183610b7d565b9250826113715761137061131c565b5b828206905092915050565b600081905092915050565b50565b600061139760008361137c565b91506113a282611387565b600082019050919050565b60006113b88261138a565b915081905091905056fea264697066735822122015d5b8fda04fcf0a45af10a2a16793d30b96522de89a315eca705a306965ccdb64736f6c63430008110033",
  "devdoc": {
    "kind": "dev",
    "methods": {},
    "version": 1
  },
  "userdoc": {
    "kind": "user",
    "methods": {},
    "version": 1
  },
  "storageLayout": {
    "storage": [
      {
        "astId": 248,
        "contract": "contracts/lottery.sol:Lottery",
        "label": "s_players",
        "offset": 0,
        "slot": "0",
        "type": "t_array(t_address_payable)dyn_storage"
      },
      {
        "astId": 251,
        "contract": "contracts/lottery.sol:Lottery",
        "label": "s_lotteryState",
        "offset": 0,
        "slot": "1",
        "type": "t_enum(LotteryState)231"
      },
      {
        "astId": 256,
        "contract": "contracts/lottery.sol:Lottery",
        "label": "s_lastTimeStamp",
        "offset": 0,
        "slot": "2",
        "type": "t_uint256"
      },
      {
        "astId": 260,
        "contract": "contracts/lottery.sol:Lottery",
        "label": "s_recentWinner",
        "offset": 0,
        "slot": "3",
        "type": "t_address"
      }
    ],
    "types": {
      "t_address": {
        "encoding": "inplace",
        "label": "address",
        "numberOfBytes": "20"
      },
      "t_address_payable": {
        "encoding": "inplace",
        "label": "address payable",
        "numberOfBytes": "20"
      },
      "t_array(t_address_payable)dyn_storage": {
        "base": "t_address_payable",
        "encoding": "dynamic_array",
        "label": "address payable[]",
        "numberOfBytes": "32"
      },
      "t_enum(LotteryState)231": {
        "encoding": "inplace",
        "label": "enum Lottery.LotteryState",
        "numberOfBytes": "1"
      },
      "t_uint256": {
        "encoding": "inplace",
        "label": "uint256",
        "numberOfBytes": "32"
      }
    }
  }
}